:020000040800F2
:1000000000040020C1010008C10E0008C10E000854
:10001000C10E0008C10E0008C10E0008C10E000884
:10002000C10E0008C10E0008C10E0008E11800084A
:10003000C10E0008C10E0008C10E0008E130000822
:10004000C10E000811360008D1360008013700083B
:10005000C10E0008C10E00083134000861340008E8
:1000600091340008C1340008F1340008F12C000874
:10007000212D0008512D0008812D0008B12D000808
:10008000E12D0008112E000821310008C10E0008E2
:10009000C10E0008C10E0008C10E0008213500087D
:1000A000C10E0008C10E0008C10E0008C10E0008F4
:1000B000C10E0008C10E0008C10E0008913A0008E8
:1000C000913B0008C10E0008C10E0008C10E0008D7
:1000D000C10E0008C10E0008C10E0008C10E0008C4
:1000E000913500084136000871360008C10E00083D
:1000F000C10E0008C10E0008C10E0008412E000804
:10010000C10E0008C10E0008314E0008C10E0008E3
:10011000C10E0008C10E0008C10E0008C10E000883
:10012000712E0008A12E0008D12E0008012F000812
:10013000312F0008C10E0008C10E0008C10E0008D2
:10014000C10E0008C10E0008C10E0008514700088A
:10015000612F0008912F0008C12F0008C10E000870
:10016000C10E0008C10E0008C10E0008C10E000833
:10017000A1360008C10E0008C10E0008C10E00081B
:10018000C10E0008C10E0008C10E0008C10E000813
:10019000C10E0008C10E0008C10E0008C10E000803
:1001A000C10E0008C10E0008C10E0008C10E0008F3
:1001B000C10E0008C10E0008C10E0008C10E0008E3
:1001C00072B6344880F3098840F20000CCF2000097
:1001D0004EF63471CEF200010860BFF34F8FBFF3CB
:1001E0006F8F40F20000C0F2F0004EF68851CEF260
:1001F00000010860BFF34F8FBFF36F8F4FF0000017
:10020000E1EE100A4EF63C71CEF2000108600620C5
:1002100080F31488BFF36F8F00F002FE04F018FE25
:100220004FF055301C491D4A91423CBF41F8040B28
:10023000FAE71B49174A91423CBF41F8040BFAE721
:100240001849194A194B9A423EBF51F8040B42F81B
:10025000040BF8E700201649164A91423CBF41F8CA
:10026000040BFAE700F0F4FD00F0E2FD124C134D30
:10027000AC4203DA54F8041B8847F9E705F070FA3A
:100280000F4C104DAC4203DA54F8041B8847F9E7D1
:1002900000F0D6BD0008002000000020000400206F
:1002A00000040020787F0008000800206C0C00206B
:1002B000700C0020481C0020C0010008C00100088C
:1002C000C0010008C001000800000000000000009C
:1002D0002DE9F04F2DED108AC1F80CD0C3689D4672
:1002E000BDEC108ABDE8F08F002383F31188284607
:1002F000A047002001F0E4F801F012F800DFFEE76B
:1003000081F0004102E000BF83F0004330B54FEAC6
:1003100041044FEA430594EA050F08BF90EA020F33
:100320001FBF54EA000C55EA020C7FEA645C7FEAC6
:10033000655C00F0E2804FEA5454D4EB5555B8BFE9
:100340006D420CDD2C4480EA020281EA030382EA5A
:10035000000083EA010180EA020281EA0303362DEC
:1003600088BF30BD11F0004F4FEA01314FF4801CBF
:100370004CEA113102D0404261EB410113F0004FD1
:100380004FEA03334CEA133302D0524263EB430388
:1003900094EA050F00F0A780A4F10104D5F1200E26
:1003A0000DDB02FA0EFC22FA05F2801841F1000181
:1003B00003FA0EF2801843FA05F359410EE0A5F155
:1003C00020050EF1200E012A03FA0EFC28BF4CF086
:1003D000020C43FA05F3C01851EBE37101F000453C
:1003E00007D54FF0000EDCF1000C7EEB00006EEB49
:1003F0000101B1F5801F1BD3B1F5001F0CD34908D3
:100400005FEA30004FEA3C0C04F101044FEA445229
:1004100012F5800F80F09A80BCF1004F08BF5FEAB0
:10042000500C50F1000041EB045141EA050130BD90
:100430005FEA4C0C404141EB010111F4801FA4F133
:100440000104E9D191F0000F04BF01460020B1FA88
:1004500081F308BF2033A3F10B03B3F120020CDAC0
:100460000C3208DD02F1140CC2F10C0201FA0CF09E
:1004700021FA02F10CE002F11402D8BFC2F1200C03
:1004800001FA02F120FA0CFCDCBF41EA0C019040B9
:10049000E41AA2BF01EB0451294330BD6FEA040402
:1004A0001F3C1CDA0C340EDC04F11404C4F12002ED
:1004B00020FA04F001FA02F340EA030021FA04F3FF
:1004C00045EA030130BDC4F10C04C4F1200220FA56
:1004D00002F001FA04F340EA0300294630BD21FA94
:1004E00004F0294630BD94F0000F83F4801306BF5A
:1004F00081F480110134013D4EE77FEA645C18BF4E
:100500007FEA655C29D094EA050F08BF90EA020FE4
:1005100005D054EA000C04BF1946104630BD91EADC
:10052000030F1EBF0021002030BD5FEA545C05D1DF
:100530004000494128BF41F0004130BD14F580041E
:100540003CBF01F5801130BD01F0004545F0FE4192
:1005500041F470014FF0000030BD7FEA645C1ABFC7
:10056000194610467FEA655C1CBF0B46024650EAFE
:10057000013406BF52EA033591EA030F41F400212A
:1005800030BD00BF90F0000F04BF0021704730B5B0
:100590004FF4806404F132044FF000054FF0000185
:1005A00050E700BF90F0000F04BF0021704730B546
:1005B0004FF4806404F1320410F0004548BF40421B
:1005C0004FF000013EE700BF42004FEAE2014FEA70
:1005D00031014FEA02701FBF12F07F4393F07F4F4B
:1005E00081F06051704792F0000F14BF93F07F4F7D
:1005F000704730B54FF4607401F0004521F00041C0
:1006000020E700BF50EA010208BF704730B54FF045
:1006100000050AE050EA010208BF704730B511F04A
:10062000004502D5404261EB41014FF4806404F182
:1006300032045FEA915C3FF4DCAE4FF003025FEA04
:10064000DC0C18BF03325FEADC0C18BF033202EB8C
:10065000DC02C2F1200300FA03FC20FA02F001FAE6
:1006600003FE40EA0E0021FA02F11444C1E600BF85
:1006700070B54FF0FF0C4CF4E06C1CEA11541DBF38
:100680001CEA135594EA0C0F95EA0C0F00F0DEF803
:100690002C4481EA030621EA4C5123EA4C5350EAE8
:1006A000013518BF52EA033541F4801143F4801339
:1006B00038D0A0FB02CE4FF00005E1FB02E506F0CA
:1006C0000042E0FB03E54FF00006E1FB03569CF01F
:1006D000000F18BF4EF0010EA4F1FF04B6F5007F25
:1006E00064F5407404D25FEA4E0E6D4146EB060697
:1006F00042EAC62141EA55514FEAC52040EA5E5020
:100700004FEACE2EB4F1FD0C88BFBCF5E06F1ED8C9
:10071000BEF1004F08BF5FEA500E50F1000041EB00
:10072000045170BD06F0004646EA010140EA0200AD
:1007300081EA0301B4EB5C04C2BFD4EB0C0541EACF
:10074000045170BD41F480114FF0000E013C00F3E4
:10075000AB8014F1360FDEBF002001F0004170BD08
:10076000C4F10004203C35DA0C341BDC04F1140421
:10077000C4F1200500FA05F320FA04F001FA05F2AD
:1007800040EA020001F0004221F0004110EBD3707A
:1007900021FA04F642EB06015EEA430E08BF20EAA6
:1007A000D37070BDC4F10C04C4F1200500FA04F349
:1007B00020FA05F001FA04F240EA020001F00041DB
:1007C00010EBD37041F100015EEA430E08BF20EA4E
:1007D000D37070BDC4F1200500FA05F24EEA020E96
:1007E00020FA04F301FA05F243EA020321FA04F0C5
:1007F00001F0004121FA04F220EA020000EBD3707C
:100800005EEA430E08BF20EAD37070BD94F0000F7B
:100810000FD101F00046400041EB010111F4801FAF
:1008200008BF013CF7D041EA060195F0000F18BF60
:10083000704703F00046520043EB030313F4801F9C
:1008400008BF013DF7D043EA0603704794EA0C0F56
:100850000CEA135518BF95EA0C0F0CD050EA41066C
:1008600018BF52EA4306D1D181EA030101F00041E9
:100870004FF0000070BD50EA410606BF1046194611
:1008800052EA430619D094EA0C0F02D150EA01361D
:1008900013D195EA0C0F05D152EA03361CBF10465E
:1008A00019460AD181EA030101F0004141F0FE41FD
:1008B00041F470014FF0000070BD41F0FE4141F481
:1008C000780170BD70B54FF0FF0C4CF4E06C1CEA81
:1008D00011541DBF1CEA135594EA0C0F95EA0C0F36
:1008E00000F0A7F8A4EB050481EA030E52EA0335F1
:1008F0004FEA013100F088804FEA03334FF0805512
:1009000045EA131343EA12634FEA022245EA11153E
:1009100045EA10654FEA00260EF000419D4208BFEF
:10092000964244F1FD0404F5407402D25B084FEA9C
:100930003202B61A65EB03055B084FEA32024FF448
:1009400080104FF4002CB6EB020E75EB030E22BFA5
:10095000B61A754640EA0C005B084FEA3202B6EB65
:10096000020E75EB030E22BFB61A754640EA5C0014
:100970005B084FEA3202B6EB020E75EB030E22BFA4
:10098000B61A754640EA9C005B084FEA3202B6EBA5
:10099000020E75EB030E22BFB61A754640EADC0064
:1009A00055EA060E18D04FEA051545EA16754FEAC6
:1009B00006164FEAC30343EA52734FEAC2025FEAE4
:1009C0001C1CC0D111F4801F0BD141EA00014FF073
:1009D00000004FF0004CB6E711F4801F04BF014344
:1009E0000020B4F1FD0C88BFBCF5E06F3FF6AFAE60
:1009F000B5EB030C04BFB6EB020C5FEA500C50F1F0
:100A0000000041EB045170BD0EF0004E4EEA113172
:100A100014EB5C04C2BFD4EB0C0541EA045170BD79
:100A200041F480114FF0000E013C90E645EA060EBD
:100A30008DE60CEA135594EA0C0F08BF95EA0C0FEB
:100A40003FF43BAF94EA0C0F0AD150EA01347FF433
:100A500034AF95EA0C0F7FF425AF104619462CE70A
:100A600095EA0C0F06D152EA03353FF4FDAE10466D
:100A7000194622E750EA410618BF52EA43067FF4BE
:100A8000C5AE50EA41047FF40DAF52EA43057FF44E
:100A9000EBAE12E7000000000000000000000000C4
:100AA0004FF0FF3C06E000BF4FF0010C02E000BF3A
:100AB0004FF0010C4DF804CD4FEA410C7FEA6C5C1D
:100AC0004FEA430C18BF7FEA6C5C1BD001B050EAC0
:100AD000410C0CBF52EA430C91EA030F02BF90EAAB
:100AE000020F0020704710F1000F91EA030F58BF6A
:100AF000994208BF90422CBFD8176FEAE37040F0CC
:100B0000010070474FEA410C7FEA6C5C02D150EA69
:100B1000013C07D14FEA430C7FEA6C5CD6D152EA24
:100B2000033CD3D05DF8040B704700BF84461046E9
:100B300062468C461946634600E000BF01B5FFF7E8
:100B4000B7FF002848BF10F1000F01BD4DF808EDB8
:100B5000FFF7F4FF0CBF012000205DF808FB00BF89
:100B60004DF808EDFFF7EAFF34BF012000205DF8E3
:100B700008FB00BF4DF808EDFFF7E0FF94BF012030
:100B800000205DF808FB00BF4DF808EDFFF7CEFF31
:100B900094BF012000205DF808FB00BF4DF808ED70
:100BA000FFF7C4FF34BF012000205DF808FB00BF41
:100BB0004FEA410212F5001215D211D56FF4787385
:100BC000B3EB625212D94FEAC12343F0004343EA28
:100BD000505311F0004F23FA02F018BF4042704703
:100BE0004FF00000704750EA013005D111F000408D
:100BF00008BF6FF0004070474FF00000704700BF23
:100C00004A0011D212F5001211D20DD56FF478738B
:100C1000B3EB62520ED44FEAC12343F0004343EAE0
:100C2000505323FA02F070474FF00000704750EA2B
:100C3000013002D14FF0FF3070474FF00000704795
:100C40004FEA4102B2F1E04324BFB3F5001CDCF1EE
:100C5000FE5C0DD901F0004C4FEAC0024CEA507026
:100C6000B2F1004F40EB830008BF20F00100704755
:100C700011F0804F21D113F13872BCBF01F0004058
:100C8000704741F480114FEA5252C2F11802C2F18A
:100C9000200C10FA0CF320FA02F018BF40F001000B
:100CA0004FEAC1234FEAD32303FA0CFC40EA0C00BD
:100CB00023FA02F34FEA4303CCE77FEA625307D1FA
:100CC00050EA01331EBF4FF0FE4040F44000704731
:100CD00001F0004040F0FE4040F40000704700BFCB
:100CE000844641EA000313F003036DD1403A41D337
:100CF00051F8043B40F8043B51F8043B40F8043BF6
:100D000051F8043B40F8043B51F8043B40F8043BE5
:100D100051F8043B40F8043B51F8043B40F8043BD5
:100D200051F8043B40F8043B51F8043B40F8043BC5
:100D300051F8043B40F8043B51F8043B40F8043BB5
:100D400051F8043B40F8043B51F8043B40F8043BA5
:100D500051F8043B40F8043B51F8043B40F8043B95
:100D600051F8043B40F8043B51F8043B40F8043B85
:100D7000403ABDD2303211D351F8043B40F8043B25
:100D800051F8043B40F8043B51F8043B40F8043B65
:100D900051F8043B40F8043B103AEDD20C3205D335
:100DA00051F8043B40F8043B043AF9D2043208D02D
:100DB000D2071CBF11F8013B00F8013B01D30B889F
:100DC00003806046704700BF082A13D38B078DD07D
:100DD00010F003038AD0C3F10403D21ADB071CBF4F
:100DE00011F8013B00F8013B80D331F8023B20F8B9
:100DF000023B7BE7043AD9D3013A11F8013B00F8F2
:100E0000013BF9D20B7803704B7843708B78837079
:100E10006046704700000000000000000000000075
:100E2000704700BF0000000000000000000000004C
:100E3000704700BF0000000000000000000000003C
:100E4000FEE700BF000000000000000000000000FE
:100E5000F0B5134F134D144C144B154907F1700E98
:100E600000269C4211D904391A4651F8040F42F861
:100E7000040B9442F9D8DA43144424F003040434F4
:100E800023449D4203D943F8046B9D42FBD8774528
:100E900005D039697B69BC69FD691037E1E7F0BDB0
:100EA00010790008481C0020481C0020481C002025
:100EB000E4830008000000000000000000000000C3
:100EC000FEE700BF0000000000000000000000007E
:100ED000FEE700BF0000000000000000000000006E
:100EE000204B214A2148F0B500249C60DF68204E49
:100EF000204D4FF6FF0139400A43DA60F26842F0B4
:100F00008072F2600268202142F001021026026025
:100F100083B0DE7783F8221000F002F900F080F849
:100F200000F076FB00F094FC00F0CAFC284640215B
:100F300000F006FAA5F1300301229861027784F3EC
:100F4000118862B69B690C49996105F150000094C3
:100F50000A4B4FF4EC7100F04BFA094B836103B07C
:100F6000F0BD00BF00ED00E00003FA05001000E056
:100F7000F0ED00E0A00C0020A0790008D10E0008E0
:100F80009079000800000000000000000000000050
:100F900072B6014BD862FEE7700C00200000000022
:100FA000F8B5134DAA69D37F0BB1013BD377116A12
:100FB000EB69104E01311162AA6AB34202F10102DB
:100FC000AA6213D09C68013C9C607CB920271A68F7
:100FD000D968DC605660EA6184F311881869884733
:100FE00087F31188EB699A68002AF0D0F8BD00BF3A
:100FF000700C00208C0C002000000000000000009D
:10100000034A516853685B1A8342FBD3704700BFA1
:10101000001000E0000000000000000000000000E0
:10102000054B4FF0FF3003F11C020021586299621A
:10103000DA611A62704700BF700C002000000000E7
:1010400070B40D4EF469A5680361A942C26004D969
:101050002468491BA5688D42FAD363684360046025
:10106000186060608160A3684FF0FF32591AA16078
:10107000726270BC704700BF700C0020000000005E
:1010800003688268416830B49D68064C2A449A60BF
:101090000B60056800224FF0FF336960C260636235
:1010A00030BC7047700C0020000000000000000001
:1010B00010B4202383F31188037F072B0ED8DFE8B9
:1010C00003F0270D0D2308040D08426A93680133CD
:1010D000936090E80C001A60026853604FF0FF3490
:1010E000002281680D4B446202771B689A688A422D
:1010F000FBD25A684260036000211060586081F39F
:1011000011885DF8044B7047436A00221A60E5E7D6
:10111000002383F311885DF8044B7047700C0020A6
:10112000034B00221B605B601B615B619A60704730
:10113000700C002000000000000000000000000013
:1011400000228168084B10B4044602771B689A6835
:101150008A42FBD25A6862602360204614605C6059
:101160005DF8044B704700BF700C002000000000C9
:10117000084B99691A6810B408770420C87710687A
:10118000186001244360147710465DF8044B9A619F
:10119000FFF79EB8700C0020000000000000000067
:1011A00030B54B1C87B012D00C4C0D4AA3690546D4
:1011B00001A8FFF745FF2846FFF7DAFF049B13B1AC
:1011C00001A8FFF75DFFA369586A07B030BD034C63
:1011D000FFF7CEFFA369586A07B030BD700C00203E
:1011E000B110000800000000000000000000000036
:1011F000144B70B404469D694162A868A16881429D
:101200004FF000020BD822771B689A689142FBD9F5
:101210005A686260236014605C6070BC70472A7713
:101220001A46126891688842FBD9506868600126A6
:101230002A60056055602677294620469C6170BC6F
:10124000FFF746B8700C002000000000000000000E
:10125000084B9A691B68D17F9B68906821B98342CB
:1012600034BF002001207047834294BF002001203A
:10127000704700BF700C002000000000000000005C
:101280000E4A1068036870B4012194695A600426FC
:1012900001770025A16813609061E677257700E06B
:1012A0001B689A688A42FBD25A68626023602146B2
:1012B00014605C6070BCFFF70BB800BF700C0020BE
:1012C0000D4A1068036830B4012194695A60002502
:1012D0000177A16813609061257700E01B689A6828
:1012E0008A42FBD85A6862602360214614605C60C1
:1012F00030BCFEF7EDBF00BF700C00200000000006
:10130000044B1A689B6992689B689A4200D87047A0
:10131000FFF7D6BF700C00200000000000000000A6
:10132000034B9B69DB7F0BB1FFF7CABFFFF7A8BF79
:10133000700C002000000000000000000000000011
:10134000F0B50F4C016465698160022600220677C2
:1013500000F12C014FF0040E012700F12806456131
:10136000046180F81FE087774277C263826302627C
:101370008261286160618662C1620163F0BD00BF65
:10138000700C0020000000000000000000000000C1
:101390006439F0B50144124E124D7769C1600B6497
:1013A000059B4B6402230D664FF0040E82600264BD
:1013B000037700F12C020023012500F128010661CA
:1013C000476180F81FE085774377C36383630362D7
:1013D0008361386181627061C2620263F0BD00BFE7
:1013E000700C0020E902000800000000000000006E
:1013F000F8B51D460446202383F31188643901445F
:10140000134E144B7769C1600D64069D4D640B66E5
:1014100002250423826002640577C377002500F16A
:101420002C0300F12802012181770661476145778D
:10143000C563856305628561294638618262C3623E
:1014400003637061FFF7D4FE85F311882046F8BD71
:10145000700C0020E90200080000000000000000FD
:1014600008B50146202383F311880820FFF798FE72
:10147000002383F3118808BD000000000000000075
:1014800038B50E4B9C69A36A606204F128059D4241
:1014900007D01A68A2621846FFF752FEA36AAB4251
:1014A000F7D1637F9B0704D1636922691A612269BE
:1014B00053610F20BDE83840FFF75ABE700C002082
:1014C000202383F31188FFF7DBBF00BF000000007B
:1014D00010B5054CA369036002465A620320FFF76A
:1014E00047FEA369586A10BD700C00200000000080
:1014F000054B02469B6921B1036003205A62FFF746
:101500004FBE4FF0FF307047700C0020000000000D
:1015100003682BB10022026018465962FFF710BE23
:10152000704700BF00000000000000000000000045
:1015300069B1084B10B4024644689B69042083E8F3
:101540001400236053605DF8044BFFF729BE4FF091
:10155000FF307047700C0020000000000000000009
:10156000026890420AD010B41468046003466360B5
:10157000516210465DF8044BFFF7E2BD704700BFB3
:1015800038B5036898420BD004460D461A682260AD
:10159000184654605D62FFF7D3FD23689C42F5D185
:1015A00038BD00BF00000000000000000000000087
:1015B000014B5B6883607047001000E00000000092
:1015C0000E4B0F495A688368F0B48F6F4168C66844
:1015D000D0E90445D31ADB1BE4180268836045F1A7
:1015E00000058B4206F1010688BF43609342C66046
:1015F000C0E9044538BF0360F0BC7047001000E04C
:10160000700C00200000000000000000000000003E
:10161000D0B50C4C86B000234FF0FF326846002650
:101620000027A3670193029303930092CDE9046717
:10163000FFF7BEFF6846FFF7C3FF029BA36706B034
:10164000D0BD00BF700C00200000000000000000B2
:101650000023006040608360704700BF000000000E
:10166000304B826870B59C69002A55D0A168936898
:101670008B42054606D2137F9160062B33D0072B91
:101680001DD09BB12B4603E09968A268914202D31A
:101690001B689D42F8D15A686260236014605C60E8
:1016A00065620620BDE87040FFF762BD92E80A005F
:1016B0001960116810464B60FFF742FDE2E792E8BF
:1016C0000900186010684360566A334602E0986863
:1016D000884202D31B689E42F9D159685160136059
:1016E0000A605A60CEE792E809001860106843600B
:1016F000566A334602E09868884202D31B689E42CD
:10170000F9D15968516013600A605A60B268A168E3
:1017100093688B42AFD3B5E7E36BC3608460E0634B
:1017200070BD00BF700C0020000000000000000031
:1017300008B5202383F31188FFF792FF002383F37A
:10174000118808BD0000000000000000000000003B
:10175000174B70B59D69202383F311880468C36813
:10176000EB6384421DD0296C4BB11A68934203D0BD
:101770009268914238BF1146DB68002BF5D10346D1
:101780002268E66BA96020461A6053609C60DE60A8
:10179000E363FFF7D5FCFFF7B3FD002383F3118864
:1017A00070BD0023A360002383F3118870BD00BFC8
:1017B000700C00200000000000000000000000008D
:1017C000202383F31188024602E08B4207D01A4699
:1017D00013689842F9D1002383F3118870470B688E
:1017E0001360002383F31188704700BF00000000DE
:1017F000836B027F19430A2A816309D00B2A00D028
:101800007047436A8B43FBD100234362FFF798BCC8
:10181000436A1942F8D17047000000000000000040
:1018200070B50468A0420FD006460D46E3682B430E
:10183000E36015B12269134203D0A1686068FFF725
:10184000D7FF2468A642F1D170BD00BF00000000A0
:10185000054A064B0648074922F0070223F0070312
:1018600002600B60704700BF4F1C00200000022088
:10187000CC0E0020C80E0020000000000000000078
:1018800010B4202383F31188094C0A4B226819688D
:10189000C31D23F00703891A8B429DBF9B18236049
:1018A00010460020002383F311885DF8044B704735
:1018B000CC0E0020C80E0020000000000000000038
:1018C000044B054A1A6003F1100000229A60DA60A6
:1018D000FFF7BEBED00E00208118000800000000F7
:1018E000064A536823F001035360EFF3098368331A
:1018F00083F30988002383F31188704730EF00E0F9
:10190000202383F31188124B5B6813F4006302D128
:1019100083F31188704710B5F1EE103AEFF30984A4
:101920000C4B4FF08072DB6844F8083C44F84C2CB8
:10193000A4F1680383F30988FFF78AFC18B1064B0A
:1019400044F8503C10BD054B44F8503C10BD00BF5E
:1019500000ED00E030EF00E0F9020008FC020008B2
:1019600008B501F025F90B4801F01AFF00F090FAD4
:1019700000F0A6FA00F0D4FA00F022FB00F070FDAF
:1019800000F0F6FD00F024FC03F06AFABDE8084020
:1019900000F006B8307B00080000000000000000E6
:1019A00001F0AEBB000000000000000000000000DD
:1019B000F0B40432002403FB0217049E059D476126
:1019C000C6620563846044628462006040600161B5
:1019D000C1608261C3610162F0BC70470000000019
:1019E0000022016A0161C1608260426282626FF01E
:1019F0000101FFF7C5BD00BF0000000000000000AE
:101A0000C3680269934201D0181D70478268002A9A
:101A1000FAD00020704700BF000000000000000066
:101A200030B4C46845692160836982682344AB424D
:101A3000C36002F1010228BF036A826028BFC3604D
:101A4000002130BCFFF78CBD00000000000000004A
:101A500038B504460D4603E0FFF76AFD00280BDBAE
:101A6000A36829462046002BF6D023691A68043360
:101A70001A44A2626362002038BD00BF000000006B
:101A800038B50446202383F31188456AEDB12B460F
:101A9000A26A13F8015B6362934211D304F1100050
:101AA0000BC803448B42A268236124BF236A2361CD
:101AB000013AE36AA260002262620BB120469847B5
:101AC000002383F31188284638BDFFF7C1FF08B90A
:101AD000656ADCE785F3118838BD00BF00000000AF
:101AE0002DE9F04F044683B00D46164699464FF057
:101AF000200888F311883D4B616A9B6A4B444FF084
:101B0000000A019309F1FF3300935746002942D0A0
:101B1000A36ACAEB060B5B1A9B4528BF9B46BBF129
:101B2000400F48D901F140022B46D1F800C0D1F84E
:101B300004E08868D1F80CB0C3F80CB010319142C1
:101B4000C3F800C0C3F804E0986003F11003ECD1BF
:101B5000636A403340350AF1400A6362A26A9A42DE
:101B600010D804F110010EC90B4493422361A06800
:101B700024BF236A2361E36A67620138A0600BB166
:101B80002046984787F31188B24527D288F31188F9
:101B9000616A0029BCD1009B033316D8134B019A0C
:101BA0009B6AD31A99451DD319462046FFF750FF6B
:101BB00088B9616AACE728465A46FFF791F8636A2C
:101BC0005B44DA445D446362C8E749462046FFF758
:101BD0003FFF0028EDD0002383F31188504603B067
:101BE000BDE8F08F81F31188F8E700BF700C00208A
:101BF000F0B40432002402FB0317049E059D4761E4
:101C0000C662056344628462006040608360016173
:101C1000C1608261C3610162F0BC704700000000D6
:101C2000016A016110B40022C4698460C16042622B
:101C300082626FF001015DF8044BFFF7A1BC00BFA9
:101C40000369C2689A4204D0184650F8043B0B60FE
:101C500070478268002AF7D000207047000000001B
:101C600010B4836904694169826823448B4203612B
:101C700002F1010228BF036A826028BF03610021CC
:101C80005DF8044BFFF76CBC000000000000000092
:101C900038B504460D4603E0FFF74AFC00280BDB8D
:101CA000A36829462046002BF6D0E268A369111DDF
:101CB00013446162A362002038BD00BF0000000031
:101CC00070B520230E46044683F31188456AFDB1A2
:101CD0002E70636AA26A01339342636214D3A269CD
:101CE000E1686069043A0A60A369A2680B44834210
:101CF000E36024BF236AE360013AE36AA260002242
:101D000062620BB120469847002080F3118870BDB5
:101D10001146FFF7BDFF08B9656AD9E785F3118859
:101D200070BD00BF000000000000000000000000C7
:101D30002DE9F04F054683B017469A464FF020092B
:101D400089F311883D4B686A9A6A0AEB0203019392
:101D50000AF1FF334FF0000B00933B46D8460F4685
:101D60001E46002841D0AA6ACBEB0604121A944200
:101D700028BF1446402C47D9394607F140030F6865
:101D80004C688A68D1F80CE0C0F80CE01031994238
:101D900007604460826000F11000F0D16A6A40324E
:101DA0000F460BF1400B6A62A96A914214D8A969E7
:101DB000EC68686904392160AA69A968C5F82480BB
:101DC00022448242EA6024BF2A6AEA60EA6A013950
:101DD000A9600AB12846904788F31188B34526D2F6
:101DE00089F31188686A0028BDD1009B033315D898
:101DF000124B996A019B591A8A451CD32846FFF752
:101E000047FF88B9686AAEE722463946FEF768FFA1
:101E10006A6A2244A34427446A62C5E751462846B9
:101E2000FFF736FF0028EDD0002282F311885846D4
:101E300003B0BDE8F08F80F31188F8E7700C002044
:101E4000C26803699A4201D00020704783680BB9C9
:101E500018467047436A002BFAD0043B9B1AF7D010
:101E600010B413608369446981681A44A24228BF90
:101E7000036AC26001F1FF3128BFC36000238160A3
:101E800043625DF8044B0120704700BF0000000072
:101E900001F006BA00000000000000000000000091
:101EA00000230122027043608360C36003614361C9
:101EB0001830FFF7CDBB00BF00000000000000009D
:101EC00001F02EBA00000000000000000000000039
:101ED0000122002302704360704700BF0000000031
:101EE00010B52023044683F31188416001F070FA95
:101EF00002232370002383F3118810BD000000002B
:101F000008B5202383F3118801F012FA002383F32C
:101F1000118808BD00000000000000000000000063
:101F200001F0A6BE0000000000000000000000005C
:101F300001220023027043600C30FFF789BB00BF11
:101F400010B52023044683F31188416001F0A8FEF8
:101F500002232370002383F3118810BD00000000CA
:101F6000F0B585B004460B9E0C9F4FF0200E8EF30B
:101F700011884FF0030E019600250A9E02970096E5
:101F8000856080F800E001F043FF431C0CBF05238F
:101F900002232370002383F3118805B0F0BD00BF36
:101FA0000C30FFF7C5BB00BF0000000000000000C0
:101FB0000C30FFF7CDBB00BF0000000000000000A8
:101FC00002F076BE000000000000000000000000EB
:101FD0000023012202704360C3600374704700BF96
:101FE00010B52023044683F311884B688360416059
:101FF00002F06EFE022200232270E36083F3118858
:1020000010BD00BF00000000000000000000000044
:1020100070B5202484F311880124C66804FA01F302
:102020003343C36002F0CCFE002383F3118870BDFC
:1020300010B5046BD4F8842413681978042982B08D
:1020400001D002B010BD217A0229FAD111791A8982
:1020500001238B401342F4D101A904F14000FFF7A2
:10206000EFFD02460028ECD0D4F88404019B0179EE
:10207000006800F0DDFAE4E7000000000000000066
:1020800010B5046BD4F8842413681978042900D09F
:1020900010BD217A0229FBD151795A8901238B4045
:1020A0001342F5D104F10C00FFF7AAFC0028EFD091
:1020B000D4F88434024659791868BDE810404FF4CA
:1020C000807300F09DBA00BF000000000000000017
:1020D00010B4D0F8844424682478042C03D0002061
:1020E0005DF8044B70470C305DF8044BFFF7F8BC0B
:1020F00010B4D0F8844424682478042C03D0002041
:102100005DF8044B704740305DF8044BFFF710BE9C
:10211000D0F884341B681B78042B02D10C30FFF7F5
:10212000AFBC6FF00100704700000000000000002D
:10213000D0F884341B681B78042B04D10C304FF08A
:10214000FF31FFF79DBC6FF00100704700000000F9
:10215000D0F884341B681B78042B02D14030FFF781
:10216000AFBD6FF0010070470000000000000000EC
:10217000D0F884341B681B78042B04D140304FF016
:10218000FF32FFF79DBD6FF00100704700000000B7
:10219000D0F884341B681B78042B01D000207047D2
:1021A0000C304FF0FF33FFF79BBC00BF0000000076
:1021B000D0F884341B681B78042B01D000207047B2
:1021C00040304FF0FF33FFF7B3BD00BF0000000009
:1021D000704700BF00000000000000000000000089
:1021E00010B50346104A43F8042B82B001210F4A70
:1021F0000190044643600172022300F174010092D1
:102200000C304FF48072FFF7D3FB094B009301941D
:1022100004F51F7104F1400002234FF48072FFF7B0
:10222000E7FC02B010BD00BFC079000881200008A3
:102230003120000800000000000000000000000045
:102240000B68202282F311880A7903EB82029061E5
:102250004A79093243F822008A7912B103EB8203EA
:10226000986102230372C0F88414002383F3118859
:10227000704700BF000000000000000000000000E8
:1022800010B5022104460430FFF7CAFA04F10C002D
:10229000FFF7A6FB04F14000BDE81040FFF7C0BC0B
:1022A00070B500F10C0504462846FFF799FB04F1D0
:1022B0004000FFF7B5FC201D0121FFF7B1FA2846C9
:1022C000FFF79EFBD4F88434024659791868BDE8BC
:1022D00070404FF4807300F093B900BF000000001D
:1022E00090F8443003F06003202B01D000207047A9
:1022F00090F84530212B03D0222B09D0202BF5D18B
:10230000064B836307220023C263036401207047E6
:1023100000238363C3630364012070470008002027
:10232000D0F8842413681978042900D07047017A02
:102330000229FBD111791A8901238B401342F5D16F
:1023400030B500F1400583B004462846FFF778FD1C
:1023500008B903B030BD01A92846FFF771FCD4F8D5
:102360008444019B21790246206800F061F9F0E77E
:10237000F0B500EB810383B09C69ECB10E460546D5
:10238000202383F3118800EB8107201D0821FFF72C
:1023900047FAFB685B691B684034FBB9204601A91A
:1023A000FFF74EFC50B1024631462846019B00F033
:1023B0003FF9002383F3118803B0F0BDFB685A692D
:1023C0001268002AF5D01B8A013B1340F1D1314637
:1023D00005F14402284600F02BF9EAE72046FFF712
:1023E0003FFC204601A9FFF72BFC0028DBD1E5E7E5
:1023F000093138B550F8214024B3202383F31188E4
:1024000004216018FFF70CFAD4F884241368527979
:1024100003EB820304F10C05DB689B6928465968CD
:10242000FFF7FEFA2846FFF7EBFA40B1D4F8843400
:102430000246597918684FF4807300F0E1F80023E0
:1024400083F3118838BD00BF0000000000000000C9
:10245000704700BF00000000000000000000000006
:1024600002F03EBB00000000000000000000000081
:10247000002301220270436083600C30FFF7E8B84C
:1024800010B52023044683F31188416002F050FB0D
:1024900002232370002383F3118810BD0000000085
:1024A00008B5202383F3118802F092FB002383F305
:1024B000118808BD000000000000000000000000BE
:1024C00008B5202383F3118802F08AFB002383F3ED
:1024D000118808BD0000000000000000000000009E
:1024E00038B50446202585F31188032504F8085BD8
:1024F00002F07EFB2046FEF7EBFF002383F31188FA
:1025000038BD00BF00000000000000000000000017
:1025100010B52023044683F31188032304F8083BF5
:1025200002F086FB2046FEF7D3FF002383F31188D9
:1025300010BD00BF0000000000000000000000000F
:1025400010B52023044683F31188032304F8083BC5
:1025500002F08EFB2046FEF7BBFF002383F31188B9
:1025600010BD00BF000000000000000000000000DF
:1025700001F096BD00000000000000000000000017
:102580000023012202704360C36183620362C3625D
:102590004362036303814381704700BF0000000072
:1025A00038B50446202383F3118800254160C560B7
:1025B00005614561856101F08BFD0223237085F380
:1025C000118838BD0000000000000000000000007D
:1025D00010B4536900EB8104E26023B100241C6055
:1025E0005C609C60DC60936923B100221A605A60D1
:1025F0009A60DA605DF8044B01F072BE00000000E2
:10260000F0B500EB81044789D4F80CE0012404FA0A
:1026100001F6DEF818403E4300274681A26084E8B8
:102620008800BDE8F04001F043BF00BF000000009B
:10263000F0B500EB81040789D4F80CE0012404FA1A
:1026400001F6DEF814403E4300270681A26084E8CC
:102650008800BDE8F04001F0C3BF00BF00000000EB
:1026600070B50223002504460370A0F84C5080F892
:102670004E5080F84F5005814581C5600561456128
:10268000856180F8345001F0BBFD63681B6823B19D
:1026900029462046BDE87040184770BD0000000084
:1026A00042681368052101700BB103211847704778
:1026B000426813680421017003B11847704700BFD6
:1026C00070B50023044680F8343000F1440201F074
:1026D000DFFE63689B685BB32046984740B3E56BB9
:1026E00094F8443094F84B1094F84A2042EA0122BE
:1026F000AA423CBFE26315461A0600F18980002D0C
:1027000051D1052384F83430202383F31188E36802
:1027100022895B69002542F00102228120469D60EA
:102720001D605D60294601F05BFF85F3118870BD77
:1027300094F8443013F060061A4611D00021204668
:1027400002F04EF90021204602F03AF963681B6856
:1027500013B1052120469847062384F8343070BD14
:1027600094F8455003F07F0141EA0525B5F5407F17
:1027700000F002812FD9B5F5C06F00F0E48060D978
:10278000B5F5106F00F0898040F60242954200F0E6
:102790000581B5F5006FD1D104F14F020125266402
:1027A000A263E5639EE7042384F83430202383F397
:1027B0001188E36862899B69E16BA66B42F00102B4
:1027C00000256281204683E86200294601F070FE00
:1027D00085F3118870BD022D00F09E8040F292803A
:1027E000B5F5807F7FD0B5F5817FA7D194F84630CD
:1027F000002BA3D194F8483013F00F012FD01E0600
:10280000204600F1F28002F0FBF894F8442026E024
:1028100065B3012384F83430202383F31188E368FF
:1028200022895B69E16BA66B42F0010200252281DF
:10283000204683E86200294601F0D2FE85F3118824
:1028400070BD40F202339D423AD0B5F5A06F7FF4DF
:1028500075AFB4F84430B3F5A06F00F0B480002336
:10286000A363E363236413067FF54BAF032384F86C
:102870003430202383F31188E36862899B69002543
:1028800042F00102628120469D601D605D60294624
:1028900001F00EFE85F3118870BD94F8463084F87F
:1028A0004F30002B40F081800323237063681B6846
:1028B000002BD4D002212046984794F84420CEE73C
:1028C00094F84630002B7FF439AF94F8483013F079
:1028D0000F01C4D01D06204600F18C8002F070F874
:1028E00094F84420BBE794F84630012B7FF426AFE0
:1028F000B4F84C30A66323F00203E6632664A4F820
:102900004C30B0E7002D46D1022004F14C02256482
:10291000A263E0630546E5E694F8481011F0800FE5
:10292000204601F00F0143D101F092FD012843D070
:1029300002287FF403AF324BA363E06326640546AD
:1029400094F84430CEE694F84900616894F8483031
:102950004D6894F8462094F8471043EA0023204637
:10296000A84700283FF4EAAE43680568E563A3631F
:10297000266494F84430B5E694F84630012B7FF491
:10298000DDAEB4F84C30A66343F00203E663266480
:10299000A4F84C3067E7012D7FF4D0AE194AA2634A
:1029A00002250022E56322649CE6042323707DE770
:1029B00001F05EFD0128BBD1134BA363E5632664E0
:1029C00094F844308EE694F8463084F84E30204631
:1029D00001F076FC63681B6813B10121204698471B
:1029E000032394F84420237039E702F019F894F88F
:1029F000442034E701F0F4FF94F844202FE700BFAF
:102A0000F0790008E0790008007A00080000000072
:102A100038B590F834300446062B15D8DFE803F0BB
:102A200004152504043C0400002101F0D9FF002115
:102A3000204601F0C5FF63681B6813B105212046DD
:102A40009847062384F8343038BD90F84B1090F83E
:102A50004A30C26B43EA0123934206D9C3681D8AF8
:102A6000B2FBF5F305FB1325EDB1032384F83430F5
:102A7000202383F31188E36862899B69002542F073
:102A80000102628120469D601D605D60294601F063
:102A90000FFD85F3118838BD036C03B198470023FF
:102AA00084F8343038BD202383F31188C368028949
:102AB0005B6942F00102028129469D601D605D60F4
:102AC00001F08EFD85F31188022384F8343038BD7F
:102AD00090F83420062A0CD838B50123934013F01F
:102AE000670F044612D113F0080503D1DB061ED48C
:102AF00038BD7047C3689B695B68002BF8D1036CD5
:102B000003B19847002384F8343038BD002101F028
:102B100067FF0021204601F053FF63681B6813B173
:102B2000052120469847062384F8343038BD052314
:102B300080F83430202383F31188C36802895B69ED
:102B400042F00102028129469D601D605D6001F036
:102B500047FD85F3118838BD00000000000000002B
:102B600043099B0010B403F1604300F1604404F595
:102B7000614403F56143090100F01F00012202FADC
:102B800000F0C9B284F80013C3F8800118605DF842
:102B9000044B70470000000000000000000000002F
:102BA00000F1604000F56D400901C9B2017670473F
:102BB000174B4FF0FF311A69002210B419611A61E6
:102BC000586959615A61186A124C60F08050186255
:102BD0001A62586A59625A62196C41F0805119643C
:102BE000216841F480712160196F01F44071B1F5E1
:102BF000007F03D04FF4803119671A67054A5DF8EA
:102C0000044B536823F40073536000F0F1B900BF24
:102C1000003802400070004000000000000000008A
:102C20002C492D4B4FF080504FF4404208641A60FD
:102C30000B6843F001030B600A68264B9007FBD535
:102C40009A6822F003029A609A689A6019468B6823
:102C5000204A13F00C03FAD1116801F0F901116058
:102C60009360136843F4803313601168194B890330
:102C7000FBD55A6F42F001025A675A6F1549900707
:102C8000FBD5164B4B600B68134A43F080730B6007
:102C900053685904FCD50F490A680E4B9201FBD5C5
:102CA0000F4A1049996040F2057111609A6842F02C
:102CB00002029A601A469368064903F00C03082B37
:102CC000F9D14B6C43F480434B644B6E43F4804327
:102CD0004B667047003802400070004008544007BF
:102CE000003C024000948838000000000000000012
:102CF00008B5074B074A196801F03D019960136850
:102D00000BB150689847BDE80840FEF7F9BD00BF19
:102D100000600240F00E00200000000000000000F3
:102D2000084B094819688268890901F03D0110B50E
:102D30008C019C600AB1C0689047BDE81040FEF766
:102D4000DFBD00BF00600240F00E00200000000068
:102D5000084B094819680269090C01F03D0110B5DA
:102D60000C049C600AB140699047BDE81040FEF732
:102D7000C7BD00BF00600240F00E00200000000050
:102D8000084B094819688269890D01F03D0110B5A9
:102D90008C059C600AB1C0699047BDE81040FEF701
:102DA000AFBD00BF00600240F00E00200000000038
:102DB00008B5074B07485968026A01F03D01D96020
:102DC0000AB1406A9047BDE80840FEF799BD00BFD0
:102DD00000600240F00E0020000000000000000033
:102DE000084B09485968826A890901F03D0110B50C
:102DF0008C01DC600AB1C06A9047BDE81040FEF764
:102E00007FBD00BF00600240F00E00200000000007
:102E1000084B09485968026B090C01F03D0110B5D7
:102E20000C04DC600AB1406B9047BDE81040FEF72F
:102E300067BD00BF00600240F00E002000000000EF
:102E4000084B09485968826B890D01F03D0110B5A6
:102E50008C05DC600AB1C06B9047BDE81040FEF7FE
:102E60004FBD00BF00600240F00E002000000000D7
:102E700008B5074B07481968026C01F03D019960DD
:102E80000AB1406C9047BDE80840FEF739BD00BF6D
:102E900000640240F00E002000000000000000006E
:102EA000084B09481968826C890901F03D0110B589
:102EB0008C019C600AB1C06C9047BDE81040FEF7E1
:102EC0001FBD00BF00640240F00E002000000000A3
:102ED000084B09481968026D090C01F03D0110B555
:102EE0000C049C600AB1406D9047BDE81040FEF7AD
:102EF00007BD00BF00640240F00E0020000000008B
:102F0000084B09481968826D890D01F03D0110B523
:102F10008C059C600AB1C06D9047BDE81040FEF77B
:102F2000EFBC00BF00640240F00E00200000000073
:102F300008B5074B07485968026E01F03D01D9609A
:102F40000AB1406E9047BDE80840FEF7D9BC00BF0B
:102F500000640240F00E00200000000000000000AD
:102F6000084B09485968826E890901F03D0110B586
:102F70008C01DC600AB1C06E9047BDE81040FEF7DE
:102F8000BFBC00BF00640240F00E00200000000043
:102F9000084B09485968026F090C01F03D0110B552
:102FA0000C04DC600AB1406F9047BDE81040FEF7AA
:102FB000A7BC00BF00640240F00E0020000000002B
:102FC000084B09485968826F890D01F03D0110B521
:102FD0008C05DC600AB1C06F9047BDE81040FEF779
:102FE0008FBC00BF00640240F00E00200000000013
:102FF0000E490F4A0F48002310B40B600E4C1946BF
:1030000001E052F80C0C016044F833100133102B2E
:1030100002F10C02F5D10949094A5DF8044B4FF061
:10302000FF338B60CB609360D3607047700F0020DC
:103030001C7A000810600240F00E00200060024080
:1030400000640240000000000000000000000000DA
:10305000F8B51F4F467A3D68012404FA06FE1EEAC1
:10306000050F31D11B4C4EEA050504EBC60E15F0D9
:10307000FF0F3D6044F83620CEF8043004D0164CE3
:10308000236B43F40013236315F47F4F16D10568B7
:103090002B6823F01F032B602B6813F00104FBD176
:1030A000077A46683D23BB40212733602C606F615F
:1030B00062B1807AFFF754FD2046F8BD064C236BC1
:1030C00043F480032363E2E72046F8BD1046F8BDD1
:1030D000700F0020F00E00200038024000000000B9
:1030E00008B5202383F31188FDF75AFF002383F3EB
:1030F0001188BDE80840FEF703BC00BF00000000D7
:10310000054B44F29F110020072259609860082166
:103110000B201A60FFF744BD10E000E00000000043
:10312000F8B5564B1A6800211960910631D5544CF8
:10313000E16A0A68536863B3256955B3136823F0DD
:103140001F031360136813F00103FBD1087AAE6804
:103150004F68A26A4A4D3D2101FA00F00121386012
:1031600053609360916046B105232B702846B047A9
:103170002B78052B04BF02232B700025256120230B
:1031800083F311884FF0FF313E48FEF7C1F985F314
:1031900011883D4B1A6800219206196031D53B4CCD
:1031A000E16A0A68536863B3256955B3136823F06D
:1031B0001F031360136813F00103FBD1087AAE6894
:1031C0004F68A26A314D3D2101FA00F001213860BB
:1031D00053609360916046B105232B702846B04739
:1031E0002B78052B04BF02232B700025256120239B
:1031F00083F311884FF0FF312548FEF789F985F3F5
:103200001188244B1A6800211960930631D5224C8D
:10321000E16A0A68536863B3256955B3136823F0FC
:103220001F031360136813F00103FBD1087AAE6823
:103230004F68A26A184D3D2101FA00F00121386063
:1032400053609360916046B105232B702846B047C8
:103250002B78052B04BF02232B700025256120232A
:1032600083F311884FF0FF310C48FEF751F985F3D5
:103270001188BDE8F840FEF743BB00BF00200140C5
:10328000740F0020880F002000210140A80F0020AB
:10329000BC0F002000220140DC0F0020F00F0020B6
:1032A000F8B5124F124E134D134C3846FEF7F8FD89
:1032B000124A134BBA6230463B63FC62FEF7F0FDE4
:1032C000104A114BB2622846A4F11802F26233632D
:1032D000243CFEF7E5FD0D4B0D4AEC62AA622B6320
:1032E00006211220BDE8F840FFF73ABC740F002019
:1032F000A80F0020DC0F0020A07A00080020014069
:10330000162C020000210140162C0202162C020489
:10331000002201400000000000000000000000004A
:103320000148FEF7D5BD00BF1010002000000000CE
:1033300001F01F0301220F29F0B502FA03F31DD992
:10334000426852F83100C40731D5204DAC681C43A7
:10335000AC60DC431D4D02EBC10110F0020FE868C8
:103360004A6814BF18432040E86032B3174A116816
:103370000B43136053681C405460F0BD21F00304FC
:10338000426804F1804404F59C3452F83100A76887
:1033900001F00305AD000F26AE40C0F3031E27EA7F
:1033A00006060EFA05F53543A560C407CDD4074ED1
:1033B000B568DC432540B560CCE7044A51680B434F
:1033C000536013681C401460F0BD00BF003C014016
:1033D000F8B50378012B064624D0144C00250127AC
:1033E0000FE022681A40226062681A406260A26898
:1033F0001A40A260E26801351340172DE360616155
:103400000FD0726852F8352007FA05F152076FEABB
:103410000103E6D5294630460135FFF789FF172D10
:10342000EFD1F8BD00F084F9D7E700BF003C0140C0
:10343000084A08B5516913680B4003F00103536152
:1034400023B10548436800215B689847BDE8084000
:10345000FEF756BA003C01401010002000000000AA
:10346000084A08B5516913680B4003F00203536121
:1034700023B1054843680121DB689847BDE808404F
:10348000FEF73EBA003C0140101000200000000092
:10349000084A08B5516913680B4003F004035361EF
:1034A00023B10548436802215B699847BDE808409D
:1034B000FEF726BA003C014010100020000000007A
:1034C000084A08B5516913680B4003F008035361BB
:1034D00023B1054843680321DB699847BDE80840EC
:1034E000FEF70EBA003C0140101000200000000062
:1034F000084A08B5516913680B4003F01003536183
:1035000023B10548436804215B6A9847BDE8084039
:10351000FEF7F6B9003C014010100020000000004A
:10352000194B10B55C691A68144004F478725A613A
:10353000A30622D460061AD4210612D4E2050AD4C6
:10354000A30504D5114843680921DB6C9847BDE801
:103550001040FEF7D5B90D48436808215B6C9847C9
:10356000EEE70A4843680721DB6B9847E6E7074820
:10357000436806215B6B9847DEE7044843680521F2
:10358000DB6A9847D6E700BF003C014010100020DE
:103590001D4B10B55C691A68144004F47C425A61F2
:1035A00062052AD4230522D4E0041AD4A10412D43B
:1035B00062040AD4230404D5144843680F21DB6F46
:1035C0009847BDE81040FEF79BB9104843680E21AC
:1035D0005B6F9847EEE70D4843680D21DB6E984717
:1035E000E6E70A4843680C215B6E9847DEE7074828
:1035F00043680B21DB6D9847D6E7044843680A21EE
:103600005B6D9847CEE700BF003C014010100020E2
:10361000084A08B55369136803F4803353612BB12A
:10362000054843681021D3F884309847BDE8084026
:10363000FEF766B9003C01401010002000000000B9
:10364000084A08B55369136803F4003353612BB17A
:10365000054843681121D3F88C309847BDE80840ED
:10366000FEF74EB9003C01401010002000000000A1
:10367000094A08B5516913680B4003F4802353616C
:103680002BB1064843681221D3F894309847BDE81F
:103690000840FEF735B900BF003C01401010002083
:1036A000094A08B5516913680B4003F4801353614C
:1036B0002BB1064843681421D3F8A4309847BDE8DD
:1036C0000840FEF71DB900BF003C0140101000206B
:1036D000094A08B5516913680B4003F4001353619C
:1036E0002BB1064843681521D3F8AC309847BDE8A4
:1036F0000840FEF705B900BF003C01401010002053
:10370000094A08B5516913680B4003F480035361FB
:103710002BB1064843681621D3F8B4309847BDE86A
:103720000840FEF7EDB800BF003C0140101000203B
:10373000062108B50846FFF713FA06210720FFF710
:103740000FFA06210820FFF70BFA06210920FFF7E0
:1037500007FA06210A20FFF703FA06211720FFF7D0
:10376000FFF906212820FFF7FBF906210120FFF7CA
:10377000F7F90F212920FFF7F3F906212A20FFF797
:10378000EFF906214C20FFF7EBF90F210220FFF79C
:10379000E7F90F210320BDE80840FFF7E1B900BFBA
:1037A000F0B4544E544D376B544C5549554A564B12
:1037B00047F0FF073763376D47F0FF073765466807
:1037C0006E608668AE60C668EE6006696E614669C6
:1037D0002E6286696E6206682E60056A6560456ABB
:1037E000A560856AE560C56A6561056B2562456B04
:1037F0006562C5692560C46B4C60046C8C60446C68
:10380000CC60846C4C61C46C0C62046D4C62846B43
:103810000C60816D5160C16D9160016ED160416E2F
:103820005161816E1162C16E5162416D1160426FD2
:103830005A60826F9A60C26FDA60D0F880205A6155
:10384000D0F884201A62D0F888205A62026F1A6079
:1038500003F58063D0F890205A60D0F894209A60E5
:10386000D0F89820DA60D0F89C205A61D0F8A020D7
:103870001A62D0F8A4205A62D0F88C201A60D0F8CE
:10388000AC20C3F80424D0F8B020C3F80824D0F842
:10389000B420C3F80C24D0F8B820C3F81424D0F80E
:1038A000BC20C3F82024D0F8C020C3F82424D0F8CA
:1038B000A820C3F80024D0F8C820C3F80428D0F802
:1038C000CC20C3F80828D0F8D020C3F80C28D0F8B2
:1038D000D420C3F81428D0F8D820C3F82028D0F872
:1038E000DC20C3F82428D0F8C420C3F80028F0BC9A
:1038F000704700BF00380240000002400004024050
:1039000000080240000C02400010024000000000CD
:103910002DE9F04FC2F3411C02F0030EC2F38009FF
:10392000C2F3C1080027C2F3C3124FF00F0B4FF0D0
:10393000010A0FE0046A24EA03031D4305624908F3
:1039400039D04FEA49094FEA88084FEA8C0C4FEA10
:103950008E0E0137CB07F2D543680AFA07F423EA43
:10396000040343EA0903436003257C00836805FAE6
:1039700004F4E443234043EA08038360C56807F086
:103980000703254045EA0C059B00BEF1020FC56008
:1039900002FA03F50BFA03F30FD00668344044EA49
:1039A0000E04072F0460C5D9446A24EA03031D43AB
:1039B00049084562C5D1BDE8F08F072F0AD8066ACD
:1039C00026EA03031D43056203681C4044F0020419
:1039D0000460B4E7466A26EA03031D434562F3E741
:1039E00011F00C0F38B50546446B12D1296B0A68EB
:1039F000136823F01F0313601368DB07FCD4087AF5
:103A00004A683D2383401360636843F40073636036
:103A100038BD0248FDF7BCFAE8E700BFD07A0008DD
:103A200011F00C0F70B50646456B25D1F26A13688C
:103A3000196821F01F011960196811F00104FBD108
:103A4000117A52683D238B4013606B6823F48053D6
:103A50006B602B6823F480632B602B6843F4007346
:103A60002B60202383F3118806F11C002146FDF70B
:103A70004FFD84F3118870BD0148FDF789FAD5E741
:103A8000D07A0008000000000000000000000000E4
:103A90003A483B4A70B5446BA369656945EA0343FC
:103AA00023F07F4393424CD01ED8073A93423CD038
:103AB0000132934210D16268C36A22F400721B681B
:103AC00062601A6842F001021A60626842F4805231
:103AD00062605B68012B4BD915F00A0F18BFA36910
:103AE000BDE87040FDF70CBF264A934212D0023267
:103AF0009342F1D1C36A1B685E683EB32368028CAF
:103B000043F4A06342F0010202842360BDE87040E8
:103B1000FDF7F6BE6368026B23F4007312686360FE
:103B2000136843F001031360D6E7038C1A0A0BD025
:103B300003F0010343F0F00302F006021343236194
:103B4000CAE7038CC3F347032361C5E7636823F423
:103B500000736360236843F400732360202383F3BE
:103B600011881C303146FDF7D3FC86F31188B3E78A
:103B7000236823F480632360AEE700BF18100020A1
:103B800008000300820007000000000000000000A1
:103B90003348F8B5446B076B66693A68B1B201F413
:103BA0005F43DB436361136823F01F0313601368F3
:103BB000DB07FCD43A7AC56A7F683D2393402A68C4
:103BC0003B60136823F01F031360136813F00103B5
:103BD000FBD12F7A6D683D22BA40CF052A6048BFDD
:103BE00001238D05836044BF43F0020383604A05CF
:103BF0000AD5626822F400726260226843F004030E
:103C000042F40072226083600F0544BF43F0080352
:103C100083604D0444BF43F020038360CC0413D57C
:103C200043F010033104836016D4202383F31188FA
:103C30006FF001010B48FDF76BFC002383F3118843
:103C4000BDE8F840FDF75CBE320405D4002BECD192
:103C5000BDE8F840FDF754BE43F040038360E4E75D
:103C600018100020341000200000000000000000A8
:103C700010B5074C2046FEF75BF9064B064A626317
:103C8000002103F14802E161E362226310BD00BF3D
:103C900018100020107A00080054004000000000B6
:103CA000F8B50378456B40F256428262012B40F230
:103CB0001642044642623CD02B46E16A226B6068A1
:103CC0000F68D2F800E04168494E05F11002BA6071
:103CD0004FF41064CEF808204FF4004700222F6004
:103CE0002A606C605F684FF6C0743C40077A5C6085
:103CF0005C68B14244F02A045C604EDD3D4CA14258
:103D000007DC022F68D0032F59D048F6FF720D212F
:103D10001962DA6101781A68022992B249D003293E
:103D200044D0012935D01A602B6843F001032B6081
:103D3000F8BD314B9842BFD1304EC06A336A304A29
:103D400043F4001300213362234631620421FFF75C
:103D50007FF92C4A206B23460421FFF779F9336C55
:103D600043F40013336404211F20FEF7F9FE0421FD
:103D70002020FEF7F5FE616AA26A636B41F00071D4
:103D800042F0007241F4403142F440326162A2627A
:103D900093E722F00A0292B2C5E72B2449001A4A9F
:103DA0001C62B2FBF1F2C2F30B02B2E742F00A026C
:103DB000B9E722F0080292B242F00202B3E701EB47
:103DC000810202EB8201104AB2FBF1F26FEA8242F9
:103DD0006FEA924292B29AE701EB41020A49B1FBC3
:103DE000F2F26FEA42426FEA524292B28FE700BFAC
:103DF000A0860100801A060018100020003802403A
:103E0000213A0008E139000880DE8002000000004D
:103E10002DE9F04349000025164607AA01849C4677
:103E2000446B856092E8044185F31188016BC76A91
:103E300009683F68836A0B60D0F82490CE60164E04
:103E4000C1F804C0C7F80090FA60C7F804802A4699
:103E5000B76A202501E082F3118885F31188A369F0
:103E6000990702D423689B0508D5B36ADB1BB3F519
:103E7000FA7FF0D34FF0FF30BDE8F083636843F47E
:103E800000736360236843F48073714623601C30C1
:103E9000BDE8F043FDF72CBB700C002000000000D3
:103EA0002DE9F04F7C4B7D499A69D0F850A0916183
:103EB00083B08346202383F3118800F160030193CC
:103EC0009BF80030012B06D0DBF85C3063B9DAF8E0
:103ED0001430DE0608D4DAF81830019843F01003E5
:103EE000CAF81830FDF7F4FA002383F311889E46D0
:103EF000DAF8143013F0100350D0DBF850301A6A9F
:103F000002F4F011B1F5802F1ED0B1F5402FEFD1A2
:103F100002F00F010BEB8101C2F30A12C9680C6AAF
:103F2000002AE5D0002103F580500B4601E09A42BB
:103F3000DED09D0708BF0168072B03F10103F6D807
:103F40002170090A0134F2E702F00F060BEB860636
:103F5000C2F30A12F16889694C680D6888682D1BE4
:103F60008AB3002103F580540B469F0708BF2168E0
:103F70009D4203F1010302D90170090A01309A42FE
:103F8000F3D1F3689B6998685C6810442244986098
:103F90005A60DAF8143013F01003AED1DBF85C206D
:103FA000012101FA0EF1114200910ED10EF1010E24
:103FB000DBF854309B685FFA8EFE9E4598D920232B
:103FC00083F311887CE70B46DFE7202282F3118818
:103FD000DAF80810DBF85C20009821F0010122EAF1
:103FE0000002CAF80810CBF85C2083F311880BEBB1
:103FF0008E03DB685F697D68D7F800C0AC4547D9A0
:10400000DBF85000B3F8109000EB4E18C5EB0C0431
:10401000D8F818394C4528BF4C469BB2B4EB830FF7
:104020000EF1010E1FD8BE6800EB0E30336803603E
:10403000042C07D923463246043B52F8041F016082
:10404000042BF9D8254426446545BE607D6021D205
:10405000C5EB0C04D8F818394C459BB228BF4C4628
:10406000B4EB830FE2D90022202383F31188DAF81E
:10407000083043F00103CAF808302AB9DAF83438B6
:10408000009A1A43CAF83428002383F311888FE773
:104090000EF1010E0122E7E7700C0020F07A000813
:1040A00010B5064C2046FEF76BFA4FF0A043044AC9
:1040B0002365002362652366636610BD50100020EF
:1040C000E07A00080000000000000000000000008E
:1040D0000378012B00D07047F0B53F4B066D984236
:1040E00083B0054618BF344650D00023C0214FF49A
:1040F0003412EB652020C6F8003E3160B263FCF755
:104100007FFF012323612369DB07FCD41220FCF726
:1041100077FF2369002BFCDA6B6D2F6DD3F808E075
:1041200000231A46B36019464FF0FF3407EB4213E1
:1041300001327245C3F800194FF00000C3F810199E
:10414000C3F80849C3F8001BC3F8101BC3F8084B99
:10415000ECD96B68DB684FF00112C7F81C28C6F871
:104160001008C6F81408C6F81C0863B11B4BB361ED
:104170006B6E4FF0FF327261F3B1B36843F001032D
:10418000B36003B0F0BD164BB361F1E7154B5A6B4A
:1041900042F080025A635A69002042F080025A615C
:1041A0000E2158614320FEF7DBFC0F4A0F4BF260F3
:1041B0002C6DC6F8003898E70D4B009502224FF49D
:1041C000067105F16800FDF7E3F86866FCF7B8FFD3
:1041D000FDF796F8D1E700BF50100020083C30C032
:1041E000003C30C000380240401400400300200270
:1041F000A13E0008000000000000000000000000D8
:10420000F8B5056D202307462B612B6913F02004B8
:10421000FBD11220FCF7F4FED7F854E0C5F834487F
:104220004FF00112DEF80860C5F81C2823464FF055
:1042300000604FF0FF3105EB43120133B342C2F887
:104240000009C2F8000BC2F80819C2F8081BF2D91D
:10425000DEF80030BB65DEF800303A6D6B6210238B
:104260001361136913F01004FBD11220FCF7C8FE90
:10427000D5F80038104A114823F4FE63C5F8003819
:10428000AB6943F4402343F010030921AB61C5F847
:104290001018C5F81418F860C5F8104BC5F8002BB5
:1042A000C5F81049C5F80029BB6D03F1100243F4AD
:1042B0008013BA65AB62F8BD40800010007B000837
:1042C000026D90F84E10D2F8003823F4FE6343EAF2
:1042D0000113C2F800387047000000000000000021
:1042E0002DE9F8430FFA81F800EB88070D46FB68CB
:1042F0001A6802F00302022A5ED0032A5ED04C4EF6
:104300004C49012A18BF0E46046D99696A0104EBF5
:10431000020E4FF0000CCEF810CB002973D0B3F88A
:1043200012E005F1580149014EEA060E44F801E099
:1043300005F1100CD4F81C184FF0010E0EFA0CFE0B
:104340004EEA0101C4F81C18224459694FF0000ECE
:10435000C2F810E9002933D0998B1A8A01294FEA53
:104360009203826D88BF4B4305F13F0103EB020EC0
:1043700004EB810142EA0343AA0142F02002C0F8A3
:1043800058E04B60226123699A06FCD41220FCF7A6
:1043900037FEFB681A8A05F1480342EA85525B0141
:1043A0003243E2500121D4F81C3801FA05F51D43CF
:1043B000C4F81C58BDE8F8831F4EA5E71F4EA3E7BD
:1043C00005F13F0204EB8202AB011D49516043F04D
:1043D0002003236123699B06FCD404EB48181220B8
:1043E000FCF70EFED8F8003923F40043C8F8003972
:1043F000D4F81C38012202FA05F523EA0503C4F8B3
:104400001C38BDE8F88304EB481105F11009D1F818
:1044100000CB2CF4004CC1F800CBD4F81C184FF0A2
:10442000010E0EFA09FE21EA0E01C4F81C188BE7F2
:1044300000800410008000100080081000800C1024
:104440000004000200000000000000000000000066
:104450005831036D49015B5813F4004004D013F444
:10446000001F14BF01200220704700BF00000000A1
:104470004831036D49015B5813F4004004D013F434
:10448000001F14BF01200220704700BF0000000081
:1044900000EB8101CB681B6A19685B68536011608F
:1044A000704700BF00000000000000000000000096
:1044B00000EB810330B4DC68A2691368D36009B9EA
:1044C000402B22D85A1E638A006D24681A44B2FB1E
:1044D000F3F202FB03F3033323F0030343EAC24383
:1044E00000EB411504F0030243F0C043012AC5F874
:1044F000103B0ED009B200EB411130BCD1F8003BAB
:1045000043F00443C1F8003B7047402313603F224F
:10451000D9E709B2D0F8083800EB411213F4807FD4
:10452000D2F8003B14BF43F0805343F00053C2F86D
:10453000003BE0E700000000000000000000000079
:104540002DE9F041244D2F6D07EB40130646D3F8BB
:10455000084BC3F8084B200703D5D7F814381907C0
:1045600031D4E2071BD5D7F81438DB0717D505EB94
:104570008603DA689169508A4C68B4FBF0F300FB5B
:10458000134474B16989D2680123B34021EA03035B
:104590006B8122B131461048BDE8F0411047BDE8BB
:1045A000F0810868CB689842ECD21B1A81E81800A9
:1045B000202383F3118808483146FFF779FF84F3FD
:1045C0001188BDE8F08105EB86033146DB6828469B
:1045D0005B689847C5E700BF50100020000000004E
:1045E00000EB8103F0B4DC6865692B68EB60F3B91C
:1045F000006D00EB41134FF40022C3F8102923682B
:1046000003F00303012B26D00BB200EB431301226E
:10461000D3F8004944F00444C3F80049D0F83438D2
:1046200002FA01F11943C0F83418F0BC704719B30D
:104630005D1E43F00052006D268A00EB411773198E
:10464000B3FBF6F342EAC343C7F81039236803F01B
:104650000303012BD8D1D0F8083813F4807F0BB2B4
:1046600000EB4314D4F8002914BF42F0805242F00A
:104670000052C4F80029C8E7402BD9D940232B6049
:10468000014A3F25D7E700BF40000020000000009E
:104690002DE9F041294E356D05EB40130746D3F85F
:1046A0000849C3F80849E10703D5D5F81038DA07F7
:1046B00009D4230605D50121D5F83438B94019426B
:1046C00018D1BDE8F08106EB8003D9684B69186802
:1046D000DA68904223D33289D1F808800123BB40A5
:1046E00022EA03033381B8F1000FE2D039463046A5
:1046F000C047DEE7202383F31188D5F83428F36D13
:104700000F4822EA01020B43C5F834280021F36563
:10471000FCF7FEFE002383F31188BDE8F081121A36
:104720004FF0000883E80401202383F31188394601
:104730003046FFF755FF88F31188BAE75010002084
:10474000B010002000000000000000000000000089
:104750002DE9F047954E376D7D69BB691D4015F415
:1047600080597D6140F0C880002D55DB2B054DD46C
:10477000AC040CD5D7F8083813F0060FFB6823F407
:1047800070530CBF43F4105343F4A053FB6028074D
:1047900004D57368DB680BB184489847EA024FD4AC
:1047A000AA0200F1B980EB0621D46E03D7F81848AD
:1047B0000BD5E00700F1F580A10700F1EE8062075C
:1047C00000F1E780230700F1D1802F030BD5E6032A
:1047D00000F1DB80A50300F1D480600300F1CD80FF
:1047E000210300F19280BDE8F047FDF789B820234E
:1047F00083F31188BB696E4823F01003BB6100216D
:10480000FCF786FE002383F31188CEE70023674878
:10481000F365FDF745FFABE7D7F8003E9A0705D0F3
:10482000D7F8003E23F00303C7F8003ED7F804385A
:104830005E4843F00103C7F80438FDF739FF95E7F8
:10484000D6F85080002407E0736D584A9B68013405
:10485000E4B29C42A14649D808EB4412D2F8003990
:1048600003F44023B3F5802FEED1D2F80039002BAA
:10487000EADAD2F8003943F09043C2F80039D2F8AE
:104880000039002BFBDB4FEA8919326D49F0200318
:10489000136113699906FCD41220FCF7B1FB06EBF7
:1048A00084034FF00109DA683389926809FA04F940
:1048B0006FEA090A0AEA0303338112B121463B4831
:1048C0009047202383F31188D8F83428F36D3848B3
:1048D0000AEA020243EA0903C8F834280021F36512
:1048E000FCF716FE002383F31188ADE7AB027FF5DA
:1048F0005AAFD2F8508011E000233046F365FDF73F
:10490000AFFEBDE8F047FCF7FBBF0320FFF718FE42
:10491000BDE8F047FCF7F4BFD6F8508000244FF014
:10492000010906E0736D01349B68E4B29C423FF6D6
:104930003AAF08EB4412D2F8003B03F44023B3F53E
:10494000802FEFD1D2F8003B002BEBDA06EB84028C
:104950007389D2681548D26809FA04F123EA010381
:1049600073812146002ADDD09047DBE70320FFF763
:104970008FFE2F037FF537AF29E70220FFF7E0FD19
:104980002EE70120FFF7DCFD27E70020FFF7D8FD29
:1049900020E70220FFF77CFE14E70120FFF778FEF6
:1049A0000DE70020FFF774FE06E700BF501000205F
:1049B000B010002000000000000000000000000017
:1049C000036D03EB4111D1F8003B43F40013C1F830
:1049D000003B7047000000000000000000000000E5
:1049E000036D03EB4111D1F8003943F40013C1F812
:1049F00000397047000000000000000000000000C7
:104A0000036D03EB4111D1F8003B23F40013C1F80F
:104A1000003B7047000000000000000000000000A4
:104A2000036D03EB4111D1F8003923F40013C1F8F1
:104A30000039704700000000000000000000000086
:104A400011F00C0F00D170470148FCF7A1BA00BF6C
:104A5000D07A000800000000000000000000000004
:104A600011F00C0F38B5044634D1606A026813683F
:104A700023F01F0313601368D907FCD4057A216A59
:104A800040680A683D23AB400360136823F01F03AE
:104A900013601368DB07FCD46368087A1A684968F6
:104AA0003D2383400B6092B104232370204690473E
:104AB0002378042B0BD0202383F31188002104F1E9
:104AC0000800FCF725FD002383F3118838BD02237D
:104AD0002370F0E70148FCF75BFAC6E7D07A0008DC
:104AE00010B50A4C0A4B4FF6FF7220461A80FDF7AC
:104AF000BFFC084B08480949094AE06103F124005A
:104B000023626062A162E26210BD00BFEC1200206D
:104B1000E8120020707A00080030014016000106FB
:104B20004600010600000000000000000000000038
:104B30000378012B10B504461DD0C3696268A06AD2
:104B40005289E16A20F4F04021F4F04112F4006F40
:104B50001CBF40F4205041F42051A062E16242F4B5
:104B600041720020072118601A6059601A6842F0EB
:104B700040021A6010BD0F4B984209D0216A626A48
:104B8000E3690868116803F10C0282608A60D5E766
:104B90000346094A006A0A21FEF75AFA2346074AE1
:104BA000606A0A21FEF754FA054A536C43F48053B5
:104BB0005364E3E7EC120020614A0008414A000810
:104BC000003802400000000000000000000000006B
:104BD00042681189526801238B409BB2538370470E
:104BE00042681189526801238B409BB2138370473E
:104BF000F0B4046A476A866AC56A24683868E36064
:104C000046F4806645F4806561602660C26041605C
:104C10000560236843F001032360036843F0010348
:104C20000360F0BC704700BF0000000000000000FF
:104C300070B4436A046AC56A24681B68806A094EB6
:104C4000E66045F4806561602060DA6059601D604F
:104C5000226842F0010222601A6842F001021A60E2
:104C600070BC70471C130020000000000000000012
:104C700070B4436A046A856A24681B68C06A094E76
:104C8000E26045F4806561602560DE60596018600F
:104C9000226842F0010222601A6842F001021A60A2
:104CA00070BC7047E8120020000000000000000007
:104CB00010B5044C2046FDF78BF90422024B2274F8
:104CC000A36110BD20130020000C00400000000074
:104CD000F8B50378012B04464BD0836900221A6093
:104CE0005A639A63DA631A645A626168A568CA688B
:104CF00060690F68CE6AB0FBF7F002F00F026C1E1D
:104D00000138012A9862DC625E6003D0022A0CBF7F
:104D100003220022486900F00F00012826D0022853
:104D200022D0C86900F00F0001281AD0022816D03E
:104D3000486A00F00F00012803D0022803D142F492
:104D4000005242F48052096B1A62012421F0FF02E2
:104D5000002085215C611861DA601960F8BD42F4B9
:104D6000007242F48072E3E742F0200242F0100247
:104D7000D7E70D4B984205D0A36946F668029A61C1
:104D8000DA61B2E7094B1A6C42F008021A641A6A37
:104D9000002042F008021A62072118623220FDF753
:104DA000DFFE034B6361E7E7201300200038024079
:104DB00000BD010500000000000000000000000030
:104DC00083690C3103EB81035A60704700000000D7
:104DD000836970B51C69DA681440E2B2D243A60751
:104DE00005461A6103D543681B6903B198476007FC
:104DF00004D56B689B690BB128469847210704D5F9
:104E00006B681B6A0BB128469847E20604D56B68AD
:104E10009B6A0BB128469847E30706D56B689B68E9
:104E20001BB12846BDE87040184770BD0000000067
:104E300008B50348FFF7CCFFBDE80840FCF760BDAC
:104E4000201300200000000000000000000000000F
:104E5000FDF7E6BE000000000000000000000000BA
:104E6000704700BF000000000000000000000000CC
:104E7000F0B400F10B073C460D46B1FBF2F602FB25
:104E8000161101F13003392BC8BF01F13703DBB232
:104E900004F8013DB5FBF2F53146002DEDD13A1B8A
:104EA000024401E014F8013F00F8013B9042F9D1BF
:104EB000F0BC70470000000000000000000000008F
:104EC0002DE9F04F2DED028B91B0002306468B4665
:104ED000924600939BF800100BF1010379B125294C
:104EE00013D0009C32689B4692683046013400948F
:104EF00090479BF800100BF101030029EFD10098B7
:104F000011B0BDEC028BBDE8F08F9BF801202D2A7B
:104F100003BF9BF802200BF1020301210021302A7C
:104F200008BF5A78019106BF013330272027591C4A
:104F3000002408E09AF800300AF1040A9BF80020E7
:104F400003EB40040131A2F13003DBB2092B8B46A5
:104F500004EB8400F2D92A2AECD02E2A4FF0000864
:104F600045D002F0DF034C2B50D0A2F14403342B88
:104F700000F2C981DFE813F0B701C701C701C7011B
:104F8000C701B701C701C701C701C701C701B50103
:104F9000C701C701C701C701C7010601C701C70192
:104FA0008D00C701C701C701C701C701C701C701FC
:104FB000C701C701C701A701B701C7010801C701A0
:104FC000C701B701C701C701C701C701C701B501C3
:104FD000C701C701C701DB00C7010601C701C7013F
:104FE0008D009AF800300AF1040A03EB41081BF81F
:104FF000012BA2F13003DBB2092B08EB8801F4D9B5
:105000002A2AEED002F0DF034C2BAED19BF8001021
:10501000002900F07881A1F144030BF1010B342B3E
:1050200000F27081DFE813F05F016E016E016E0126
:105030006E015F016E016E016E016E016E015D0118
:105040006E016E016E016E016E01AE006E016E01A9
:1050500035006E016E016E016E016E016E016E0112
:105060006E016E016E014F015F016E01B0006E01B5
:105070006E015F016E016E016E016E016E015D01D8
:105080006E016E016E0183006E01AE006E016E0155
:10509000350010220AADDAF800102846FFF7E8FEC6
:1050A000401B0AF1040A00F1FF38019B241A24EA8C
:1050B000E474002B62D1C4F10009B9F1000F00F0D3
:1050C0002B8129782D2900F03A81336839469B6875
:1050D0003046984719F10109F7D1009BB8F1000F4C
:1050E00023440093FFF6F6AE4C46C146336815F8EC
:1050F000011B9B6809F1FF3930469847B9F1FF3F22
:10510000F4D1009B0133B8F1000FA8BF43440093D2
:10511000002C3FF4DFAE2546336839469B683046A5
:105120009847013DF8D1009B23440093D2E6DAF87A
:1051300000509B4B002D08BF1D460AF1040A2B7836
:10514000B8F1000F00F0EE80002B00F0F08008F1C5
:10515000FF38284602E0B8F1FF3F05D010F8013FC4
:1051600008F1FF38002BF6D1401B019B241A00F1F7
:10517000FF38202724EAE474002B9CD0B8F1000FFC
:10518000B3DAC5E70A2285E70AF1070A2AF0070A17
:10519000DAE90001FBF754FD08EE100AB5EEC08A0B
:1051A000F1EE10FA0AF1080A00F1E8800AAD2A4689
:1051B00018EE100A0492FBF707FA08F1FF38B8F16D
:1051C000080FCDE90201049A00F2C780754B53F82D
:1051D00028804046FBF7D6F9734B049AA3FB0838A6
:1051E000CDE906014FEAD80309939846FDEEC87A47
:1051F00002F10B0317EE901A17EE90EACDED047A48
:10520000059318460892684BA3FB0E23DB0803EBBB
:105210008309654A9C46AEEB49033033A2FB01216A
:10522000DBB2C90800F8013DE646ECD10599089AC1
:10523000C0EB0109914401E010F8013F02F8013B85
:105240004A45F9D14A462E2302F80C3B04980492B1
:10525000FBF7A8F902460B46DDE90201FBF754F81B
:10526000DDE90623FBF704FAFBF7A2FC0999049A8F
:10527000002908BF804609F1010E4B4BA3FB001328
:10528000DB0803EB830C1946A0EB4C034648303394
:10529000A0FB0808DBB25FEAD80802F8013D084627
:1052A000EBD10499891A481C8144704601E012F838
:1052B000013F00F8013B8145F9D10EEB0100401B95
:1052C00000F1FF38F1E610ADDAF8003005F8183DCE
:1052D0000DF12900401B0AF1040A00F1FF382027D4
:1052E000E3E60822D6E6DAF8001000290AF1040AFB
:1052F0003CDB0AAD28460A22FFF7BAFD401B00F14D
:10530000FF38D2E60A4610AD0DF1290005F8182D38
:10531000401B00F1FF38C8E6B8F1000FFFF6DAAD28
:105320004C46E2E647F6FE78002B7FF412AF019B75
:1053300024EAE4745BBB4FF0FF382027BBE6302F34
:105340007FF4C3AE336830469B689847009B0133B7
:105350000135009308F1FF38B7E69FED0F7BDFF8CA
:105360004C80CDF824808DED067B3FE72D2349420C
:105370008DF828300DF129000AADBCE72D23B1EEE0
:10538000488A8DF828300DF129020AAD10E7202750
:10539000BEE600BFAFF300800000000065CDCD4148
:1053A000107C0008207C0008CDCCCCCC00E1F505B9
:1053B0000EB400B582B003AA52F8041B0192FFF7A5
:1053C0007FFD02B05DF804EB03B070470000000001
:1053D00002683749002310B422F0010221248842D8
:1053E0000260036043608360C360036144614DD029
:1053F000304B984235D0304B984239D02F4B9842A1
:105400003DD02F4B984247D02E4B984248D02E4B40
:1054100098421DD02D4B98421ED02D4B984243D020
:105420002C4B98421DD02C4B984221D02B4B9842AC
:1054300025D02B4B98422FD02A4B984230D02A4B64
:10544000984205D0294B984206D05DF8044B70472E
:10545000274A43F8942CF8E74FF03D5243F8AC2C20
:10546000F3E74FF4746243F8202C5DF8044B704767
:105470004FF4741243F8382C5DF8044B70474FF02A
:10548000746243F8502C5DF8044B7047194B5DF87B
:10549000044B3D229A607047174A43F8642CD4E7C6
:1054A000164A43F87C2CD0E73D2243F8082CCCE781
:1054B0001060024028600240406002405860024094
:1054C0007060024088600240A0600240B860024004
:1054D0001064024028640240406402405864024064
:1054E0007064024088640240A0640240B8640240D4
:1054F00000003D20006002403D000020400F0020E1
:1055000001F11802F0B48CCACD680E684C692E43C4
:10551000264316431E434A6A8B6A4D6B8C6B3E438F
:1055200016431E430B4A0368CF6A35432C431A4087
:10553000224302600B6B42690D694C6889683B43EA
:1055400022F007021343436145608460C160F0BCF0
:10555000704700BF3F801CF000000000000000000A
:10556000036819B923F001030360704743F0010396
:105570000360704700000000000000000000000011
:1055800029B9054A136B23EA000010637047024BE8
:105590001A6B104318637047003802400000000087
:1055A00029B9054A136C23EA000010647047024BC6
:1055B0001A6C104318647047003802400000000065
:1055C000224A036890429BB212D002F58062904258
:1055D0000ED0B0F1804F0BD0A2F58032904207D0B0
:1055E00002F58062904203D002F58062904203D1BE
:1055F0004A8823F070031343154A90421ED002F5E7
:10560000806290421AD00A8970B423F440730F4C20
:105610004E680D889BB21343A0420360C662856248
:1056200006D00C4B984203D00123436170BC7047F5
:105630008B7A03630123436170BC704703604A683F
:105640000B88C262836201234361704700000140FE
:1056500000100040000401400000000000000000B5
:1056600029B902684FF6FE73134003607047036860
:1056700043F00103036070470000000000000000D9
:10568000026A4FF6FF6313400362F0B54A88D0F810
:1056900020E08C8945681A4EC7694FF6FF531443C2
:1056A0000EEA030343EA04234FF68C720C883A4057
:1056B000B0429BB2ADB242EA040209D006F5806660
:1056C000B04205D089684560C261C1630362F0BD24
:1056D000CE890C8AB1F812E023F4006343EA062372
:1056E0004FF6FF361E408B8825F4405744EA0E05DE
:1056F00046EA032347EA05159BB2ADB2E2E700BFD5
:105700000000014000000000000000000000000058
:10571000C2694FF6F77313401943C161704700BF68
:10572000436C19B9C3F30E034364704743F4004359
:10573000436470470000000000000000000000000B
:105740002AB9C368C94389B21940C1607047C368A8
:105750001943C160704700BF000000000000000056
:105760002DE9F04F8BB0FCF7FBF8FBF7B9FB0121FB
:105770000846FFF705FF01210220FFF701FF012185
:105780000420FFF7FDFE182204215348DFF86CB116
:10579000524FFEF7BDF8182202214F48FEF7B8F825
:1057A00018224FF400714E48FEF7B2F801F090F85D
:1057B00042F21070FBF754FE0DF1100A00F0F8F8F9
:1057C000002600F03DF900F07BFB00F081FF01F0C6
:1057D000D7F870E03B6B0396DC6942484FF47A736C
:1057E000042203A9A0473B683C489C69042203A902
:1057F00040F6C413A047039B1A20642B88BF03966E
:1058000000F07EFA8DED082B55EC104B8DED061B4C
:105810008DED001B8DED040B00F042FA00F048FA0C
:105820000398FAF7AFFE00222F4BFBF74BF841EC41
:10583000100B01F06DF99DED001B002251EC110BD6
:105840002A4BFAF715FF0022294B80468946FAF7C2
:105850005DFDFBF7D5F90146002000F0D1F92046A7
:1058600029460022214BFAF703FF02460B46044665
:105870000D4600201E49FAF747FDFBF7C1F9014626
:10588000012000F0BDF942464B4600201849FAF7C6
:105890003BFDFBF7B5F90146022000F0B1F900220B
:1058A000134B20462946FAF731FDFBF7A9F90146CB
:1058B000032000F0A5F900F0B3F800288AD09BE897
:1058C00007008AE8070052460A490B4807960896DF
:1058D000FFF76EFD7EE700BF000802405C1A002063
:1058E000000402408C1A00200000594000000840CB
:1058F00000006040507C00084C130020E078000855
:10590000022906D0032906D00129064818BF002025
:10591000704705487047032A9ABF044B03EBC20047
:1059200000207047E07C0008A07D0008707C000823
:1059300008B5202383F311880348FCF7F1FC00230A
:1059400083F3118808BD00BF4C1300200000000045
:10595000022938B50C460CD0032909D1202383F342
:1059600011880E48FCF78CFC002383F3118838BDA6
:1059700038BD0546202383F31188094A0121FCF72D
:1059800027FE21462846074AFCF722FE0348FCF77B
:1059900087FC002383F3118838BD00BF4C1300201F
:1059A000107D0008B07D000800000000000000002D
:1059B00070B5154E154D164C304640F202524FF45C
:1059C0000061FDF7A5FF40F202524FF480513046CE
:1059D000FDF79EFF2846FCF703FC0E492846FCF71E
:1059E0002FFC226D936B23F40023936343F69820DE
:1059F000FBF736FD20460849FCF7D2FD226D936B7C
:105A000043F40023936370BD000002404C13002058
:105A100050100020407D0008907C0008000000002D
:105A2000054BD3F884341B681878A0F10400B0FA51
:105A300080F04009704700BF4C13002000000000B8
:105A40002DE9F0412DED028B614B624EDFF8A4C1D0
:105A500000221A605A609A60DA601A619E4698B015
:105A6000154611463746334621244220C1F30742EA
:105A7000C1F307281CF802201CF80880C9B21202E2
:105A80001CF8011042EA08420A4303F1300112F403
:105A9000000F14BF18801C8002338B424FEA420271
:105AA000F5D11835782D02D05EF8041FDEE74A4B99
:105AB000002103F1640223F8021F9A42FBD1474DF3
:105AC0009FED478A002407EE904AB8EEE70ADFED23
:105AD000450A80EE080A01F09BF8013420EE080A1E
