:020000040800F2
:1000000000040020C1010008A10E0008A10E000894
:10001000A10E0008A10E0008A10E0008A10E000804
:10002000A10E0008A10E0008A10E00088119000809
:10003000A10E0008A10E0008A10E00085131000811
:10004000A10E00088136000841370008713700080A
:10005000A10E0008A10E0008A1340008D134000848
:10006000013500083135000861350008712D0008A0
:10007000A12D0008D12D0008012E0008312E000806
:10008000612E0008912E000841320008A10E0008E0
:10009000A10E0008A10E0008A10E0008913500086D
:1000A000A10E0008A10E0008A10E0008A10E000874
:1000B000A10E0008A10E0008A10E0008213B0008B7
:1000C000213C0008A10E0008A10E0008A10E0008A6
:1000D000A10E0008A10E0008A10E0008A10E000844
:1000E00001360008B1360008E1360008A10E00080C
:1000F000A10E0008A10E0008A10E0008C12E0008E4
:10010000A10E0008A10E0008C14E0008A10E0008B3
:10011000A10E0008A10E0008A10E0008A10E000803
:10012000F12E0008212F0008512F0008812F000810
:10013000B12F0008A10E0008A10E0008A10E0008B2
:10014000A10E0008A10E0008A10E0008E14700085A
:10015000E12F00081130000841300008A10E00080E
:10016000A10E0008A10E0008A10E0008A10E0008B3
:1001700011370008A10E0008A10E0008A10E00080A
:10018000A10E0008A10E0008A10E0008A10E000893
:10019000A10E0008A10E0008A10E0008A10E000883
:1001A000A10E0008A10E0008A10E0008A10E000873
:1001B000A10E0008A10E0008A10E0008A10E000863
:1001C00072B6344880F3098840F20000CCF2000097
:1001D0004EF63471CEF200010860BFF34F8FBFF3CB
:1001E0006F8F40F20000C0F2F0004EF68851CEF260
:1001F00000010860BFF34F8FBFF36F8F4FF0000017
:10020000E1EE100A4EF63C71CEF2000108600620C5
:1002100080F31488BFF36F8F00F002FE04F060FEDD
:100220001D481E491E4A91423CBF41F8040BFAE7A3
:100230001C49184A91423CBF41F8040BFAE71A499D
:100240001A4A1B4B9A423EBF51F8040B42F8040B6A
:10025000F8E700201749184A91423CBF41F8040BC7
:10026000FAE700F0F5FD00F0E3FD144C144DAC424C
:1002700003DA54F8041B8847F9E705F051FA114CEA
:10028000114DAC4203DA54F8041B8847F9E700F03B
:10029000D7BD00000008002055555555000000202E
:1002A0000004002000040020987E000800080020C0
:1002B0006C0C0020700C0020001C0020C001000805
:1002C000C0010008C0010008C001000800000000D3
:1002D0002DE9F04F2DED108AC1F80CD0C3689D4672
:1002E000BDEC108ABDE8F08F002383F31188284607
:1002F000A047002001F0E4F801F002F800DFFEE77B
:1003000081F0004102E000BF83F0004330B54FEAC6
:1003100041044FEA430594EA050F08BF90EA020F33
:100320001FBF54EA000C55EA020C7FEA645C7FEAC6
:10033000655C00F0E2804FEA5454D4EB5555B8BFE9
:100340006D420CDD2C4480EA020281EA030382EA5A
:10035000000083EA010180EA020281EA0303362DEC
:1003600088BF30BD11F0004F4FEA01314FF4801CBF
:100370004CEA113102D0404261EB410113F0004FD1
:100380004FEA03334CEA133302D0524263EB430388
:1003900094EA050F00F0A780A4F10104D5F1200E26
:1003A0000DDB02FA0EFC22FA05F2801841F1000181
:1003B00003FA0EF2801843FA05F359410EE0A5F155
:1003C00020050EF1200E012A03FA0EFC28BF4CF086
:1003D000020C43FA05F3C01851EBE37101F000453C
:1003E00007D54FF0000EDCF1000C7EEB00006EEB49
:1003F0000101B1F5801F1BD3B1F5001F0CD34908D3
:100400005FEA30004FEA3C0C04F101044FEA445229
:1004100012F5800F80F09A80BCF1004F08BF5FEAB0
:10042000500C50F1000041EB045141EA050130BD90
:100430005FEA4C0C404141EB010111F4801FA4F133
:100440000104E9D191F0000F04BF01460020B1FA88
:1004500081F308BF2033A3F10B03B3F120020CDAC0
:100460000C3208DD02F1140CC2F10C0201FA0CF09E
:1004700021FA02F10CE002F11402D8BFC2F1200C03
:1004800001FA02F120FA0CFCDCBF41EA0C019040B9
:10049000E41AA2BF01EB0451294330BD6FEA040402
:1004A0001F3C1CDA0C340EDC04F11404C4F12002ED
:1004B00020FA04F001FA02F340EA030021FA04F3FF
:1004C00045EA030130BDC4F10C04C4F1200220FA56
:1004D00002F001FA04F340EA0300294630BD21FA94
:1004E00004F0294630BD94F0000F83F4801306BF5A
:1004F00081F480110134013D4EE77FEA645C18BF4E
:100500007FEA655C29D094EA050F08BF90EA020FE4
:1005100005D054EA000C04BF1946104630BD91EADC
:10052000030F1EBF0021002030BD5FEA545C05D1DF
:100530004000494128BF41F0004130BD14F580041E
:100540003CBF01F5801130BD01F0004545F0FE4192
:1005500041F470014FF0000030BD7FEA645C1ABFC7
:10056000194610467FEA655C1CBF0B46024650EAFE
:10057000013406BF52EA033591EA030F41F400212A
:1005800030BD00BF90F0000F04BF0021704730B5B0
:100590004FF4806404F132044FF000054FF0000185
:1005A00050E700BF90F0000F04BF0021704730B546
:1005B0004FF4806404F1320410F0004548BF40421B
:1005C0004FF000013EE700BF42004FEAE2014FEA70
:1005D00031014FEA02701FBF12F07F4393F07F4F4B
:1005E00081F06051704792F0000F14BF93F07F4F7D
:1005F000704730B54FF4607401F0004521F00041C0
:1006000020E700BF50EA010208BF704730B54FF045
:1006100000050AE050EA010208BF704730B511F04A
:10062000004502D5404261EB41014FF4806404F182
:1006300032045FEA915C3FF4DCAE4FF003025FEA04
:10064000DC0C18BF03325FEADC0C18BF033202EB8C
:10065000DC02C2F1200300FA03FC20FA02F001FAE6
:1006600003FE40EA0E0021FA02F11444C1E600BF85
:1006700070B54FF0FF0C4CF4E06C1CEA11541DBF38
:100680001CEA135594EA0C0F95EA0C0F00F0DEF803
:100690002C4481EA030621EA4C5123EA4C5350EAE8
:1006A000013518BF52EA033541F4801143F4801339
:1006B00038D0A0FB02CE4FF00005E1FB02E506F0CA
:1006C0000042E0FB03E54FF00006E1FB03569CF01F
:1006D000000F18BF4EF0010EA4F1FF04B6F5007F25
:1006E00064F5407404D25FEA4E0E6D4146EB060697
:1006F00042EAC62141EA55514FEAC52040EA5E5020
:100700004FEACE2EB4F1FD0C88BFBCF5E06F1ED8C9
:10071000BEF1004F08BF5FEA500E50F1000041EB00
:10072000045170BD06F0004646EA010140EA0200AD
:1007300081EA0301B4EB5C04C2BFD4EB0C0541EACF
:10074000045170BD41F480114FF0000E013C00F3E4
:10075000AB8014F1360FDEBF002001F0004170BD08
:10076000C4F10004203C35DA0C341BDC04F1140421
:10077000C4F1200500FA05F320FA04F001FA05F2AD
:1007800040EA020001F0004221F0004110EBD3707A
:1007900021FA04F642EB06015EEA430E08BF20EAA6
:1007A000D37070BDC4F10C04C4F1200500FA04F349
:1007B00020FA05F001FA04F240EA020001F00041DB
:1007C00010EBD37041F100015EEA430E08BF20EA4E
:1007D000D37070BDC4F1200500FA05F24EEA020E96
:1007E00020FA04F301FA05F243EA020321FA04F0C5
:1007F00001F0004121FA04F220EA020000EBD3707C
:100800005EEA430E08BF20EAD37070BD94F0000F7B
:100810000FD101F00046400041EB010111F4801FAF
:1008200008BF013CF7D041EA060195F0000F18BF60
:10083000704703F00046520043EB030313F4801F9C
:1008400008BF013DF7D043EA0603704794EA0C0F56
:100850000CEA135518BF95EA0C0F0CD050EA41066C
:1008600018BF52EA4306D1D181EA030101F00041E9
:100870004FF0000070BD50EA410606BF1046194611
:1008800052EA430619D094EA0C0F02D150EA01361D
:1008900013D195EA0C0F05D152EA03361CBF10465E
:1008A00019460AD181EA030101F0004141F0FE41FD
:1008B00041F470014FF0000070BD41F0FE4141F481
:1008C000780170BD70B54FF0FF0C4CF4E06C1CEA81
:1008D00011541DBF1CEA135594EA0C0F95EA0C0F36
:1008E00000F0A7F8A4EB050481EA030E52EA0335F1
:1008F0004FEA013100F088804FEA03334FF0805512
:1009000045EA131343EA12634FEA022245EA11153E
:1009100045EA10654FEA00260EF000419D4208BFEF
:10092000964244F1FD0404F5407402D25B084FEA9C
:100930003202B61A65EB03055B084FEA32024FF448
:1009400080104FF4002CB6EB020E75EB030E22BFA5
:10095000B61A754640EA0C005B084FEA3202B6EB65
:10096000020E75EB030E22BFB61A754640EA5C0014
:100970005B084FEA3202B6EB020E75EB030E22BFA4
:10098000B61A754640EA9C005B084FEA3202B6EBA5
:10099000020E75EB030E22BFB61A754640EADC0064
:1009A00055EA060E18D04FEA051545EA16754FEAC6
:1009B00006164FEAC30343EA52734FEAC2025FEAE4
:1009C0001C1CC0D111F4801F0BD141EA00014FF073
:1009D00000004FF0004CB6E711F4801F04BF014344
:1009E0000020B4F1FD0C88BFBCF5E06F3FF6AFAE60
:1009F000B5EB030C04BFB6EB020C5FEA500C50F1F0
:100A0000000041EB045170BD0EF0004E4EEA113172
:100A100014EB5C04C2BFD4EB0C0541EA045170BD79
:100A200041F480114FF0000E013C90E645EA060EBD
:100A30008DE60CEA135594EA0C0F08BF95EA0C0FEB
:100A40003FF43BAF94EA0C0F0AD150EA01347FF433
:100A500034AF95EA0C0F7FF425AF104619462CE70A
:100A600095EA0C0F06D152EA03353FF4FDAE10466D
:100A7000194622E750EA410618BF52EA43067FF4BE
:100A8000C5AE50EA41047FF40DAF52EA43057FF44E
:100A9000EBAE12E7000000000000000000000000C4
:100AA0004FF0FF3C06E000BF4FF0010C02E000BF3A
:100AB0004FF0010C4DF804CD4FEA410C7FEA6C5C1D
:100AC0004FEA430C18BF7FEA6C5C1BD001B050EAC0
:100AD000410C0CBF52EA430C91EA030F02BF90EAAB
:100AE000020F0020704710F1000F91EA030F58BF6A
:100AF000994208BF90422CBFD8176FEAE37040F0CC
:100B0000010070474FEA410C7FEA6C5C02D150EA69
:100B1000013C07D14FEA430C7FEA6C5CD6D152EA24
:100B2000033CD3D05DF8040B704700BF84461046E9
:100B300062468C461946634600E000BF01B5FFF7E8
:100B4000B7FF002848BF10F1000F01BD4DF808EDB8
:100B5000FFF7F4FF0CBF012000205DF808FB00BF89
:100B60004DF808EDFFF7EAFF34BF012000205DF8E3
:100B700008FB00BF4DF808EDFFF7E0FF94BF012030
:100B800000205DF808FB00BF4DF808EDFFF7CEFF31
:100B900094BF012000205DF808FB00BF4DF808ED70
:100BA000FFF7C4FF34BF012000205DF808FB00BF41
:100BB0004FEA410212F5001215D211D56FF4787385
:100BC000B3EB625212D94FEAC12343F0004343EA28
:100BD000505311F0004F23FA02F018BF4042704703
:100BE0004FF00000704750EA013005D111F000408D
:100BF00008BF6FF0004070474FF00000704700BF23
:100C00004A0011D212F5001211D20DD56FF478738B
:100C1000B3EB62520ED44FEAC12343F0004343EAE0
:100C2000505323FA02F070474FF00000704750EA2B
:100C3000013002D14FF0FF3070474FF00000704795
:100C40004FEA4102B2F1E04324BFB3F5001CDCF1EE
:100C5000FE5C0DD901F0004C4FEAC0024CEA507026
:100C6000B2F1004F40EB830008BF20F00100704755
:100C700011F0804F21D113F13872BCBF01F0004058
:100C8000704741F480114FEA5252C2F11802C2F18A
:100C9000200C10FA0CF320FA02F018BF40F001000B
:100CA0004FEAC1234FEAD32303FA0CFC40EA0C00BD
:100CB00023FA02F34FEA4303CCE77FEA625307D1FA
:100CC00050EA01331EBF4FF0FE4040F44000704731
:100CD00001F0004040F0FE4040F40000704700BFCB
:100CE000844641EA000313F003036DD1403A41D337
:100CF00051F8043B40F8043B51F8043B40F8043BF6
:100D000051F8043B40F8043B51F8043B40F8043BE5
:100D100051F8043B40F8043B51F8043B40F8043BD5
:100D200051F8043B40F8043B51F8043B40F8043BC5
:100D300051F8043B40F8043B51F8043B40F8043BB5
:100D400051F8043B40F8043B51F8043B40F8043BA5
:100D500051F8043B40F8043B51F8043B40F8043B95
:100D600051F8043B40F8043B51F8043B40F8043B85
:100D7000403ABDD2303211D351F8043B40F8043B25
:100D800051F8043B40F8043B51F8043B40F8043B65
:100D900051F8043B40F8043B103AEDD20C3205D335
:100DA00051F8043B40F8043B043AF9D2043208D02D
:100DB000D2071CBF11F8013B00F8013B01D30B889F
:100DC00003806046704700BF082A13D38B078DD07D
:100DD00010F003038AD0C3F10403D21ADB071CBF4F
:100DE00011F8013B00F8013B80D331F8023B20F8B9
:100DF000023B7BE7043AD9D3013A11F8013B00F8F2
:100E0000013BF9D20B7803704B7843708B78837079
:100E10006046704700000000000000000000000075
:100E2000704700BF0000000000000000000000004C
:100E3000704700BF0000000000000000000000003C
:100E4000FEE700BF000000000000000000000000FE
:100E5000F0B4114E002506F1800796E81A00A3426F
:100E60000DD204391A4651F8040F42F8040BA2427D
:100E7000F9D3DA43144424F0030404342344F2681D
:100E8000934203D243F8045B9342FBD31036BE4235
:100E9000E3D3F0BC704700BF1078000800000000EA
:100EA000FEE700BF0000000000000000000000009E
:100EB000FEE700BF0000000000000000000000008E
:100EC000204B214A2148F0B500249C60DF68204E69
:100ED000204D4FF6FF0139400A43DA60F26842F0D4
:100EE0008072F2600268202142F001021026026046
:100EF00083B0DE7783F8221000F002F900F080F86A
:100F000000F086FB00F0F4FC00F02AFD28464021AA
:100F100000F006FAA5F1300301229861027784F30C
:100F2000118862B69B690C49996105F150000094E3
:100F30004FF4EC71094B00F053FA094B836103B095
:100F4000F0BD00BF00ED00E00003FA05001000E076
:100F5000F0ED00E0A00C0020A0780008B10E000821
:100F60009078000800000000000000000000000071
:100F700072B6014BD862FEE7700C00200000000042
:100F8000F8B5134DAA69D37F0BB1013BD377116A32
:100F9000EB69104E01311162AA6AB34202F10102FB
:100FA000AA6213D09C68013C9C607CB920271A6817
:100FB000D968DC605660EA6184F311881869884753
:100FC00087F31188EB699A68002AF0D0F8BD00BF5A
:100FD000700C00208C0C00200000000000000000BD
:100FE000034A516853685B1A9842FBD8704700BFA8
:100FF000001000E000000000000000000000000001
:10100000054B4FF0FF3003F11C020021586299623A
:10101000DA611A62704700BF700C00200000000007
:1010200070B40D4EF469A5680361A942C26004D989
:101030002468491BA5688D42FAD363684360046045
:10104000186060608160A3684FF0FF32591AA16098
:10105000726270BC704700BF700C0020000000007E
:1010600003688268416830B49D68064C2A449A60DF
:101070000B60056800224FF0FF336960C260636255
:1010800030BC7047700C0020000000000000000021
:1010900010B4202383F31188037F072B0ED8DFE8D9
:1010A00003F0270D0D2308040D08426A93680133ED
:1010B000936090E80C001A60026853604FF0FF34B0
:1010C000002281680D4B446202771B689A688A424D
:1010D000FBD25A684260036000211060586081F3BF
:1010E00011885DF8044B7047436A00221A60E5E7F7
:1010F000002383F311885DF8044B7047700C0020C7
:10110000034B00221B605B601B615B619A60704750
:10111000700C002000000000000000000000000033
:1011200000228168084B10B4044602771B689A6855
:101130008A42FBD25A6862602360204614605C6079
:101140005DF8044B704700BF700C002000000000E9
:10115000084B30B41A68996914680877012504208F
:10116000C877636015771C60104630BC9A61FFF742
:10117000AFB800BF700C00200000000000000000AD
:1011800030B54B1C87B012D00C4C0D4AA3690546F4
:1011900001A8FFF745FF2846FFF7DAFF049B13B1CC
:1011A00001A8FFF75DFFA369586A07B030BD034C83
:1011B000FFF7CEFFA369586A07B030BD700C00205E
:1011C0009110000800000000000000000000000076
:1011D000144B70B49E6984680546B06869628442A5
:1011E0004FF000020BD82A771B689A689442FBD90B
:1011F0005A686A602B6015605D6070BC704732771A
:101200001A46126891688842FBD9506870600124C0
:101210003260066056602C77314628469D6170BC6E
:10122000FFF756B8700C002000000000000000001E
:10123000084B9A691B68D17F9B68906821B98342EB
:1012400034BF002001207047834294BF002001205A
:10125000704700BF700C002000000000000000007C
:101260000E4A1068F0B403689469136001270426DD
:101270000025A1685A6007779061E677257700E03E
:101280001B689A688A42FBD25A68626023602146D2
:1012900014605C60F0BCFFF71BB800BF700C00204E
:1012A0000D4A106870B40368946913600126002524
:1012B000A1685A6006779061257700E01B689A68FC
:1012C0008A42FBD85A6862602360214614605C60E1
:1012D00070BCFEF7FDBF00BF700C002000000000D6
:1012E000044B1A689B6992689B689A4200D87047C1
:1012F000FFF7D6BF700C00200000000000000000C7
:10130000034B9B69DB7F0BB1FFF7CABFFFF7A8BF99
:10131000700C002000000000000000000000000031
:101320002DE9F041114C016466694661002200F12B
:101330002C054FF002084FF0040C4FF0010E00F1A5
:1013400028078160046180F81C8080F81FC080F845
:101350001EE04277C2638263026282613061606133
:101360008762C5620563BDE8F08100BF700C002094
:101370002DE9F04F6439184FDFF86090D7F814E08A
:10138000099E01440025C1604FF0020B0B644FF031
:10139000040A00F12C034FF0010800F1280C4E6400
:1013A000C1F8609082600761C0F814E0026480F8C0
:1013B0001CB080F81FA080F81E804577C563856348
:1013C00005628561CEF81000C0F828C07861C3625C
:1013D0000363BDE8F08F00BF700C0020E902000835
:1013E0002DE9F84F0446202585F311881A4EDFF8C1
:1013F0006CA0776964390144C16000250B6400F179
:101400002C0B4FF0010C00F1280E0A9B4B644FF09F
:1014100002094FF00408C1F860A0826006614761CC
:10142000026480F81C9080F81F8080F81EC0457709
:10143000C56385630562856129463861C0F828E087
:10144000C0F82CB0C0F830B07061FFF7C1FE85F372
:1014500011882046BDE8F88F700C0020E9020008D2
:1014600008B50146202383F311880820FFF788FE82
:10147000002383F3118808BD000000000000000075
:1014800038B50E4B9C69A36A606204F128059D4241
:1014900007D01A68A2621846FFF742FEA36AAB4261
:1014A000F7D1637F9B0704D1636922691A612269BE
:1014B00053610F20BDE83840FFF74ABE700C002092
:1014C000202383F31188FFF7DBBF00BF000000007B
:1014D00010B5054CA369036002465A620320FFF76A
:1014E00037FEA369586A10BD700C00200000000090
:1014F000054B02469B6921B1036003205A62FFF746
:101500003FBE4FF0FF307047700C0020000000001D
:1015100003682BB10022026018465962FFF700BE33
:10152000704700BF00000000000000000000000045
:1015300069B1084B10B4024644689B69042083E8F3
:101540001400236053605DF8044BFFF719BE4FF0A1
:10155000FF307047700C0020000000000000000009
:1015600002689042034609D010B4146804606360B6
:10157000516210465DF8044BFFF7D2BD704700BFC3
:1015800038B50368984204460D4609D01A682260AF
:10159000184654605D62FFF7C3FD23689C42F5D195
:1015A00038BD00BF00000000000000000000000087
:1015B000014B5B6883607047001000E00000000092
:1015C0000E4B0F495A688368F0B48F6F4168C66844
:1015D000D0E90445D31ADB1BE4180268836045F1A7
:1015E00000058B4206F1010688BF43609342C66046
:1015F000C0E9044538BF0360F0BC7047001000E04C
:10160000700C00200000000000000000000000003E
:10161000D0B50C4C86B000234FF0FF326846002650
:101620000027A3670193029303930092CDE9046717
:10163000FFF7BEFF6846FFF7C3FF029BA36706B034
:10164000D0BD00BF700C00200000000000000000B2
:101650000023006040608360704700BF000000000E
:10166000304B826870B59C69002A55D0A168936898
:101670009942054606D9137F9160062B33D0072B7C
:101680001DD09BB12B4603E09968A268914202D31A
:101690001B689D42F8D15A686260236014605C60E8
:1016A00065620620BDE87040FFF752BD92E80A006F
:1016B0001960116810464B60FFF732FDE2E792E8CF
:1016C00009001860566A10684360334602E0986863
:1016D000884202D31B689E42F9D159685160136059
:1016E0000A605A60CEE792E809001860566A1068EE
:1016F0004360334602E09868884202D31B689E42EA
:10170000F9D15968516013600A605A60B268A168E3
:1017100093688B42AFD3B5E7E36BC3608460E0634B
:1017200070BD00BF700C0020000000000000000031
:1017300008B5202383F31188FFF792FF002383F37A
:10174000118808BD0000000000000000000000003B
:10175000174B70B59D69202383F311880468C36813
:10176000EB63A0421DD0296C4BB11A68934203D0A1
:101770009268914238BF1146DB68002BF5D10346D1
:101780002268E66BA96020461A6053609C60DE60A8
:10179000E363FFF7C5FCFFF7A3FD002383F3118884
:1017A00070BD00238360002383F3118870BD00BFE8
:1017B000700C00200000000000000000000000008D
:1017C00030B4202484F31188064D0468AD690C60A0
:1017D000002401604D608A600B61CC6084F3118845
:1017E00030BC7047700C00200000000000000000BA
:1017F000202383F31188024602E08B4207D01A4669
:1018000013688342F9D1002383F3118870470B6872
:101810001360002383F31188704700BF00000000AD
:10182000836B027F19430A2A81630AD00B2A00D0F6
:101830007047436A19408B42FAD100234362FFF795
:101840006FBC436A1942F8D1704700BF0000000026
:1018500070B50468A04206460D460DD0E3682B43E0
:10186000E36015B12269134203D06068A168FFF7F5
:10187000D7FF2468A642F1D170BD00BF0000000070
:1018800008B5202383F31188FFF7E2FFFFF728FD57
:10189000002383F3118808BD000000000000000051
:1018A000124B70B520229D6982F31188AA6B10EA51
:1018B00002060ED119B981F31188084670BD68621D
:1018C00004460A20FFF75CFC00280BDBAA6B04EA45
:1018D00002067042304022EA0002AA63002383F32A
:1018E000118870BD86F31188304670BD700C0020E1
:1018F000054A064B0648074922F0070223F0070372
:1019000002600B60704700BF071C0020000002202F
:10191000CC0E0020C80E00200000000000000000D7
:1019200010B4202383F31188094C0A4B22681968EC
:10193000C31D23F00703891A8B429DBF9B182360A8
:1019400010460020002383F311885DF8044B704794
:10195000CC0E0020C80E0020000000000000000097
:10196000044B054A1A6003F1100000229A60DA6005
:10197000FFF76EBED00E0020211900080000000005
:10198000064A536823F001035360EFF30983683379
:1019900083F30988002383F31188704730EF00E058
:1019A000202383F31188124B5B6813F4006302D188
:1019B00083F31188704710B5F1EE103AEFF3098404
:1019C0000C4B4FF08072DB6844F8083C44F84C2C18
:1019D000A4F1680383F30988FFF72AFC18B1064BCA
:1019E00044F8503C10BD054B44F8503C10BD00BFBE
:1019F00000ED00E030EF00E0F9020008FC02000812
:101A000008B501F015F90B4801F002FF00F0A0FA4B
:101A100000F0B6FA00F0E4FA00F032FB00F088FDC6
:101A200000F00EFE00F034FC03F062FABDE808405E
:101A300000F006B8307A0008000000000000000046
:101A400001F096BB00000000000000000000000054
:101A5000F0B40432002403FB0217049E059D476185
:101A6000C662056384604462846200604060016114
:101A7000C1608261C3610162F0BC70470000000078
:101A80000022016A0161C1608260426282626FF07D
:101A90000101FFF775BD00BF00000000000000005D
:101AA000C3680269934201D0181D70478268002AFA
:101AB000FAD00020704700BF0000000000000000C6
:101AC00030B4C46845692160836982682344AB42AD
:101AD000C36002F1010228BF036A826028BFC360AD
:101AE000002130BCFFF73CBD0000000000000000FA
:101AF00038B504460D4603E0FFF71AFD00280BDB5E
:101B0000A36820462946002BF6D023691A680433BF
:101B10001A44A2626362002038BD00BF00000000CA
:101B200010B4836904694169826823448B4203616C
:101B300024BF036A0361013AC36A826000224262E1
:101B400013B15DF8044B18475DF8044B704700BFB4
:101B500038B50446202383F31188456A9DB12B468E
:101B6000A26A13F8015B6362934204D2002383F3F9
:101B70001188284638BD2046FFF7D2FF002383F3A3
:101B80001188284638BDFFF7B3FF08B9656AE6E754
:101B900085F3118838BD00BF000000000000000080
:101BA0002DE9F04F044683B00E4692469946202711
:101BB00087F311883A4B616A9B6A4B440025019375
:101BC00009F1FF330093A84691B3A36AC5EB0A0B52
:101BD0005B1A9B4528BF9B46BBF1400F38D901F1EA
:101BE00040023346D1F800C0D1F804E08868D1F84B
:101BF0000CB0C3F80CB010319142C3F800C0C3F868
:101C000004E0986003F11003ECD1636AA26A4033E8
:101C10009A4206F1400605F14005636224D988F333
:101C20001188554527D287F31188616A0029CCD1E4
:101C3000009B033323D81A4B019A9B6AD31A994508
:101C40002AD319462046FFF753FFF0B9616ABCE773
:101C500030465A46FFF744F8636AA26A5B449A42E8
:101C60005D445E446362DAD82046FFF759FF88F38B
:101C700011885545D7D3284603B0BDE8F08F2046DC
:101C80004946FFF735FF0028E0D0002383F3118891
:101C9000284603B0BDE8F08F81F31188EBE700BF61
:101CA000700C002000000000000000000000000098
:101CB000F0B40432002402FB0317049E059D476123
:101CC000C6620563446284620060406083600161B3
:101CD000C1608261C3610162F0BC70470000000016
:101CE000016A016110B40022C4698460C16042626B
:101CF00082626FF001015DF8044BFFF741BC00BF49
:101D00000369C2689A4204D0184650F8043B0B603D
:101D100070478268002AF7D000207047000000005A
:101D200010B4836904694169826823448B4203616A
:101D300002F1010228BF036A826028BF036100210B
:101D40005DF8044BFFF70CBC000000000000000031
:101D500038B504460D4603E0FFF7EAFB00280BDB2D
:101D6000A36820462946002BF6D0E268A369111D1E
:101D700013446162A362002038BD00BF0000000070
:101D800030B4C46845692160836982682344AB42EA
:101D9000C36024BF036AC360013AC36A8260002241
:101DA00042620BB130BC184730BC704700000000E5
:101DB00070B520230E46044683F31188456A9DB111
:101DC0002E70636AA26A01339342636203D20020D9
:101DD00080F3118870BDA16920460439FFF7D0FF58
:101DE000002080F3118870BD1146FFF7B1FF08B9DC
:101DF000656AE5E785F3118870BD00BF000000004B
:101E00002DE9F04F044683B092469846202686F38B
:101E100011883A4B606A9B6A43440025019308F19C
:101E2000FF3300932F46894688B3A26AC5EB0A0B9D
:101E3000121A934528BF9346BBF1400F494635D946
:101E400009F14003D1F800C0D1F804E08A68D1F864
:101E50000C90C0F80C9010319942C0F800C0C0F846
:101E600004E0826000F11000ECD1626A8946A16A48
:101E70004032914205F14005626222D987F3118810
:101E8000554527D286F31188606A0028CDD1009B82
:101E9000033323D8194B996A019B591A88452AD3D1
:101EA0002046FFF755FFF8B9606ABEE75A46FEF7CD
:101EB00017FF626AA16A5A4491425D44D944626242
:101EC000DCD8A16920460439FFF75AFF87F311884F
:101ED0005545D7D3284603B0BDE8F08F204641468C
:101EE000FFF736FF0028DFD0002383F31188284650
:101EF00003B0BDE8F08F80F31188EBE7700C002091
:101F0000C26803699A4201D0002070478368002BA1
:101F1000FAD0436A002BF7D0043B9B1AF4D010B4DC
:101F200013608369446981681A44A24228BF036A26
:101F3000C26001F1FF3128BFC360002381604362AA
:101F40005DF8044B01207047000000000000000015
:101F500001F01EB9000000000000000000000000B9
:101F600000230122027043608360C3600361436108
:101F70001830FFF76DBB00BF00000000000000003C
:101F800001F0F6B9000000000000000000000000B1
:101F90000122002302704360704700BF0000000070
:101FA00010B52023044683F31188416001F058FAEC
:101FB00002232370002383F3118810BD000000006A
:101FC00008B5202383F3118801F0DAF9002383F3A5
:101FD000118808BD000000000000000000000000A3
:101FE00001F08EBE000000000000000000000000B4
:101FF00001220023027043600C30FFF729BB00BFB1
:1020000010B52023044683F31188416001F090FE4F
:1020100002232370002383F3118810BD0000000009
:10202000F0B585B004460A9F0B9E4FF0200E8EF34C
:1020300011884FF0030E019600250C9E0097029622
:10204000856080F800E001F033FF431C0CBF0523DE
:1020500002232370002383F3118805B0F0BD00BF75
:102060000C30FFF765BB00BF00000000000000005F
:102070000C30FFF76DBB00BF000000000000000047
:1020800002F05EBE00000000000000000000000042
:102090000023012202704360C3600374704700BFD5
:1020A00010B52023044683F311884B688360416098
:1020B00002F056FE022200232270E36083F31188AF
:1020C00010BD00BF00000000000000000000000084
:1020D00070B5202383F311880123C5688B402B43FF
:1020E000C36002F0B5FE002383F3118870BD00BF0A
:1020F00010B5046BD4F8842413681978042982B0CD
:1021000001D002B010BD217A0229FAD111791A89C1
:1021100001238B401342F4D104F1400001A9FFF7E1
:10212000EFFD02460028ECD0D4F88414019B086827
:10213000097900F0EDFAE4E700000000000000007B
:1021400010B5046BD4F8842413681978042900D0DE
:1021500010BD217A0229FBD151795A8901238B4084
:102160001342F5D104F10C00FFF79AFC0028EFD0E0
:10217000D4F88434024659791868BDE810404FF409
:10218000807300F0ADBA00BF000000000000000046
:1021900010B4D0F8844424682478042C03D00020A0
:1021A0005DF8044B70470C305DF8044BFFF7F8BC4A
:1021B00010B4D0F8844424682478042C03D0002080
:1021C0005DF8044B704740305DF8044BFFF718BED4
:1021D000D0F884341B681B78042B02D10C30FFF735
:1021E000B7BC6FF001007047000000000000000065
:1021F000D0F884341B681B78042B04D10C304FF0CA
:10220000FF31FFF7A5BC6FF0010070470000000030
:10221000D0F884341B681B78042B02D14030FFF7C0
:10222000C7BD6FF001007047000000000000000013
:10223000D0F884341B681B78042B04D140304FF055
:10224000FF32FFF7B5BD6FF00100704700000000DE
:10225000D0F884341B681B78042B01D00020704711
:102260000C304FF0FF33FFF79BBC00BF00000000B5
:10227000D0F884341B681B78042B01D000207047F1
:1022800040304FF0FF33FFF7BBBD00BF0000000040
:10229000704700BF000000000000000000000000C8
:1022A00010B50346104A43F8042B82B004460121BE
:1022B0000E4A019043600172022304F174010092FE
:1022C0000C304FF48072FFF7C3FB094B009301946D
:1022D00004F1400004F51F714FF480720223FFF7F0
:1022E000E7FC02B010BD00BFC07800084121000823
:1022F000F1200008000000000000000000000000C5
:102300000B68202282F311880A7903EB8202906124
:102310004A79093243F822008A7912B103EB820329
:10232000986102230372C0F88414002383F3118898
:10233000704700BF00000000000000000000000027
:1023400010B5022104460430FFF782FA04F10C00B4
:10235000FFF796FB04F14000BDE81040FFF7C0BC5A
:1023600070B500F10C0504462846FFF789FB04F11F
:102370004000FFF7B5FC201D0121FFF769FA284650
:10238000FFF78EFBD4F88434024659791868BDE80B
:1023900070404FF4807300F0A3B900BF000000004C
:1023A00090F8443003F06003202B01D000207047E8
:1023B00090F84530212B03D0222B09D0202BF5D1CA
:1023C000064B836307220023C26303640120704726
:1023D00000238363C3630364012070470008002067
:1023E000D0F8842413681978042900D07047017A42
:1023F0000229FBD111791A8901238B401342F5D1AF
:1024000030B500F1400583B004462846FFF778FD5B
:1024100008B903B030BD01A92846FFF771FCD4F814
:102420008414019B02460868097900F071F9F0E70D
:10243000F0B500EB810383B09C69ECB10E46054614
:10244000202383F3118800EB8107201D0821FFF76B
:10245000FFF9FB685B691B684034FBB9204601A9A2
:10246000FFF74EFC024648B128463146019B00F07A
:102470004FF9002383F3118803B0F0BDFB685A695C
:102480001268002AF5D01B8A013B1340F1D1314676
:10249000284605F1440200F03BF9EAE72046FFF741
:1024A0003FFC204601A9FFF72BFC02460028DBD1A8
:1024B000E4E700BF00000000000000000000000092
:1024C000093138B550F8214024B3202383F3118813
:1024D00004216018FFF7BCF9D4F8842413685279FA
:1024E00003EB820304F10C05DB689B6928465968FD
:1024F000FFF7E6FA2846FFF7D3FA40B1D4F8843460
:102500000246597918684FF4807300F0E9F8002307
:1025100083F3118838BD00BF0000000000000000F8
:10252000704700BF00000000000000000000000035
:1025300002F01EBB000000000000000000000000D0
:10254000002301220270436083600C30FFF780B8E3
:1025500010B52023044683F31188416002F030FB5C
:1025600002232370002383F3118810BD00000000B4
:1025700008B5202383F3118802F072FB002383F354
:10258000118808BD000000000000000000000000ED
:1025900008B5202383F3118802F06AFB002383F33C
:1025A000118808BD000000000000000000000000CD
:1025B00038B50446202585F31188032504F8085B07
:1025C00002F05EFB2046FEF783FF002383F31188B1
:1025D00038BD00BF00000000000000000000000047
:1025E00010B52023044683F31188032304F8083B25
:1025F00002F066FB2046FEF76BFF002383F3118891
:1026000010BD00BF0000000000000000000000003E
:1026100010B52023044683F31188032304F8083BF4
:1026200002F06EFB2046FEF753FF002383F3118870
:1026300010BD00BF0000000000000000000000000E
:1026400001F07EBD0000000000000000000000005E
:102650000023012202704360C36183620362C3628C
:102660004362036303814381704700BF00000000A1
:1026700038B50446202383F3118800254160C560E6
:1026800005614561856101F073FD0223237085F3C7
:10269000118838BD000000000000000000000000AC
:1026A00070B500EB810306465069DA6014460D46AA
:1026B00018B10021102205F043F8A06918B10021DB
:1026C000102205F03DF830462946BDE8704001F083
:1026D00057BE00BF00000000000000000000000026
:1026E000F0B500EB81064789D6F80CE00126DEF84C
:1026F00018408E403E4300274681A26084E888004F
:10270000BDE8F04001F01CBF000000000000000028
:10271000F0B500EB81060789D6F80CE00126DEF85B
:1027200014408E403E4300270681A26084E8880062
:10273000BDE8F04001F09CBF000000000000000078
:1027400070B50223002504460370A0F84C5080F8B1
:102750004E5080F84F5005814581C5600561456147
:10276000856180F8345001F09BFD63681B6823B1DC
:1027700020462946BDE87040184770BD00000000A3
:1027800042681368052101700BB103211847704797
:10279000426813680421017003B11847704700BFF5
:1027A000F8B50023044680F8343000F1440201F00B
:1027B000B7FE63689B6813B320469847F8B1E56B92
:1027C00094F8443094F84B1094F84A2042EA0122DD
:1027D000AA423CBFE26315461B0676D4002D64D1A5
:1027E000052384F83430202383F3118820462946BA
:1027F0002A462B46FFF78CFF85F31188F8BD94F825
:10280000443013F0600711D02046002102F030F967
:102810002046002102F01CF963681B6813B12046B2
:1028200005219847062384F83430F8BD94F84550C4
:1028300003F07F0242EA0526B6F5407F00F0E7800C
:1028400016D9B6F5C06F00F0C9805ED9B6F5106F25
:102850006ED040F60242964200F0EC80B6F5006F72
:10286000D2D104F14F0201252764A263E563A9E7F1
:10287000022E00F09C8040F29180B6F5807F7DD0E2
:10288000B6F5817FC0D194F84620002ABCD194F8D7
:10289000482012F00F0146D01506204600F1F280C4
:1028A00002F0F6F894F844303DE0042384F8343024
:1028B000202383F311880021E36BA26B2046FFF7EE
:1028C0000FFF002383F31188F8BD7DB1012384F845
:1028D0003430202383F311880021E36BA26B204660
:1028E000FFF716FF002383F31188F8BD032384F854
:1028F0003430202383F31188204629462A462B466C
:10290000FFF7EEFE85F31188F8BD40F202329642E1
:1029100021D0B6F5A06F7FF477AFB4F84420B2F5BC
:10292000A06F00F09D800025A563E563256449E75D
:1029300094F8462084F84F20002A40F08280032239
:10294000227062681268002AEDD02046022190476A
:1029500094F84430E7E794F84620002A7FF454AF17
:1029600094F8482012F00F01DDD01206204600F145
:102970008E8002F06DF894F84430D4E794F8462045
:10298000012A7FF441AFB4F84C20A76322F0020281
:10299000E76327643D46A4F84C2013E7002E46D198
:1029A00004F14C0202252664A263E5630AE794F869
:1029B000481011F0800F204601F00F0144D101F0C2
:1029C0008FFD012844D002287FF41EAF324BA36351
:1029D000E0632764054694F84430F3E6626894F8AF
:1029E000490094F84830556894F8471094F8462008
:1029F00043EA00232046A84700283FF405AF436878
:102A00000568E563A363276494F84430DAE694F834
:102A10004620012A7FF4F8AEB4F84C20A76342F0B8
:102A20000202E76327643D46A4F84C20CAE6012E63
:102A30007FF4EAAE194AA26302250022E56322640C
:102A4000C0E6042222707CE701F05AFD0128BAD1C9
:102A5000134BA363E6632764354694F84430B1E62C
:102A600094F8463084F84E30204601F079FC6368D3
:102A70001B6813B1204601219847032294F8443083
:102A8000227050E702F014F894F844304BE701F05C
:102A9000EFFF94F8443046E7F0780008E07800084B
:102AA00000790008000000000000000000000000A5
:102AB00038B590F834300446062B15D8DFE803F01B
:102AC0000415250404350400002101F0D1FF20463F
:102AD000002101F0BDFF63681B6813B1204605218A
:102AE0009847062384F8343038BD90F84B1090F89E
:102AF0004A30C26B43EA0123934206D9C3681D8A58
:102B0000B2FBF5F305FB1325B5B1032384F834308C
:102B1000202383F3118800210B4620460A46FFF745
:102B2000DFFD002383F3118838BD036C03B19847A0
:102B3000002384F8343038BD202383F311882946DC
:102B40002A462B46FFF7E4FD85F31188022384F81B
:102B5000343038BD0000000000000000000000001C
:102B600090F83420062A38B50AD80123934013F090
:102B7000670F044611D113F0080502D1DB061DD4FE
:102B800038BDC3689B695B68002BF9D1036C03B146
:102B90009847002384F8343038BD002101F068FFE5
:102BA0002046002101F054FF63681B6813B12046E2
:102BB00005219847062384F8343038BD052380F872
:102BC0003430202383F3118829462A462B46FFF709
:102BD0009FFD85F3118838BD000000000000000053
:102BE00043099B0010B403F1604300F1604404F515
:102BF000614403F56143090100F01F000122824096
:102C0000C9B284F80013C3F880211A605DF8044B40
:102C1000704700BF0000000000000000000000003E
:102C200000F1604000F56D400901C9B201767047BE
:102C3000174B4FF0FF311A69002210B419611A6165
:102C4000586959615A61186A124C60F080501862D4
:102C50001A62586A59625A62196C41F080511964BB
:102C6000216841F480712160196F01F44071B1F560
:102C7000007F03D04FF4803119671A67054A5DF869
:102C8000044B536823F40073536000F0F1B900BFA4
:102C9000003802400070004000000000000000000A
:102CA0002C492D4B4FF080504FF4404208641A607D
:102CB0000B6843F001030B600A68264B9007FBD5B5
:102CC0009A6822F003029A609A689A6019468B68A3
:102CD000204A13F00C03FAD1116801F0F9011160D8
:102CE0009360136843F4803313601168194B8903B0
:102CF000FBD55A6F42F001025A675A6F1549900787
:102D0000FBD5164B4B600B68134A43F080730B6086
:102D100053685904FCD50F490A680E4B9201FBD544
:102D20000F4A1049996040F2057111609A6842F0AB
:102D300002029A601A469368064903F00C03082BB6
:102D4000F9D14B6C43F480434B644B6E43F48043A6
:102D50004B6670470038024000700040085440073E
:102D6000003C024000948838000000000000000091
:102D700008B5074B074A196801F03D0199601368CF
:102D80000BB150689847BDE80840FEF709BE00BF88
:102D900000600240F00E0020000000000000000073
:102DA000084B094819688268890901F03D0110B58E
:102DB0008C019C600AB1C0689047BDE81040FEF7E6
:102DC000EFBD00BF00600240F00E002000000000D8
:102DD000084B094819680269090C01F03D0110B55A
:102DE0000C049C600AB140699047BDE81040FEF7B2
:102DF000D7BD00BF00600240F00E002000000000C0
:102E0000084B094819688269890D01F03D0110B528
:102E10008C059C600AB1C0699047BDE81040FEF780
:102E2000BFBD00BF00600240F00E002000000000A7
:102E300008B5074B07485968026A01F03D01D9609F
:102E40000AB1406A9047BDE80840FEF7A9BD00BF3F
:102E500000600240F00E00200000000000000000B2
:102E6000084B09485968826A890901F03D0110B58B
:102E70008C01DC600AB1C06A9047BDE81040FEF7E3
:102E80008FBD00BF00600240F00E00200000000077
:102E9000084B09485968026B090C01F03D0110B557
:102EA0000C04DC600AB1406B9047BDE81040FEF7AF
:102EB00077BD00BF00600240F00E0020000000005F
:102EC000084B09485968826B890D01F03D0110B526
:102ED0008C05DC600AB1C06B9047BDE81040FEF77E
:102EE0005FBD00BF00600240F00E00200000000047
:102EF00008B5074B07481968026C01F03D0199605D
:102F00000AB1406C9047BDE80840FEF749BD00BFDC
:102F100000640240F00E00200000000000000000ED
:102F2000084B09481968826C890901F03D0110B508
:102F30008C019C600AB1C06C9047BDE81040FEF760
:102F40002FBD00BF00640240F00E00200000000012
:102F5000084B09481968026D090C01F03D0110B5D4
:102F60000C049C600AB1406D9047BDE81040FEF72C
:102F700017BD00BF00640240F00E002000000000FA
:102F8000084B09481968826D890D01F03D0110B5A3
:102F90008C059C600AB1C06D9047BDE81040FEF7FB
:102FA000FFBC00BF00640240F00E002000000000E3
:102FB00008B5074B07485968026E01F03D01D9601A
:102FC0000AB1406E9047BDE80840FEF7E9BC00BF7B
:102FD00000640240F00E002000000000000000002D
:102FE000084B09485968826E890901F03D0110B506
:102FF0008C01DC600AB1C06E9047BDE81040FEF75E
:10300000CFBC00BF00640240F00E002000000000B2
:10301000084B09485968026F090C01F03D0110B5D1
:103020000C04DC600AB1406F9047BDE81040FEF729
:10303000B7BC00BF00640240F00E0020000000009A
:10304000084B09485968826F890D01F03D0110B5A0
:103050008C05DC600AB1C06F9047BDE81040FEF7F8
:103060009FBC00BF00640240F00E00200000000082
:103070000D4B30B400220D4D0D4C1A601146134615
:10308000A858016044F833100133102B02F10C02F0
:10309000F6D10849084A4FF0FF338B6030BCCB6053
:1030A0009360D360704700BF700F00201079000854
:1030B000F00E0020006002400064024000000000AA
:1030C000F8B51F4F467A3D68012404FA06FE1EEA51
:1030D000050F31D11B4C4EEA050504EBC60C15F06B
:1030E000FF0F3D6044F83620CCF8043004D0164C75
:1030F000236B43F40013236315F47F4F16D1056847
:103100002B6823F01F032B602B6813F00104FBD105
:10311000077A46683D23BB40212733602C606F61EE
:1031200062B1807AFFF75CFD2046F8BD064C236B48
:1031300043F480032363E2E72046F8BD1046F8BD60
:10314000700F0020F00E0020003802400000000048
:1031500008B5202383F31188FDF712FF002383F3C2
:103160001188BDE80840FEF71BBC00BF000000004E
:10317000054B44F29F1000210722586099600B20F4
:1031800008211A60FFF74CBD10E000E000000000CD
:10319000F8B5124F124E134D134C3846FEF7E0FEB1
:1031A000124A134BBA6230463B63FC62FEF7D8FE0C
:1031B000104A114BB2622846A4F11802F26233633E
:1031C000243CFEF7CDFE0D4B0D4AEC62AA622B6348
:1031D00012200621BDE8F840FFF702BD740F002061
:1031E000A80F0020DC0F0020A0790008002001407B
:1031F000162C020000210140162C0202162C02049B
:10320000002201400000000000000000000000005B
:10321000C16A0A68136823F01F031360136813F070
:103220000103FBD130B40D7A4C68826A3D21A9407C
:1032300001202160536030BC93609060704700BFF4
:1032400038B5424B1A6800211960910605D5404CEB
:10325000E36A1B685B68002B57D13E4B1A6800215C
:103260009206196004D53C4CE36A1B685B6863BB3B
:103270003A4B1A6800211960930622D5384CE36A4C
:103280001B685B68EBB12369DBB12046FFF7C0FF29
:1032900023699B684BB10522227020460121984783
:1032A0002378052B04BF02232370002525612023EA
:1032B00083F311882B484FF0FF31FEF729F985F38E
:1032C0001188BDE83840FEF76BBB2369002BCFD0D7
:1032D0002046FFF79DFF23699B684BB105222270B2
:1032E0002046012198472378052B04BF0223237031
:1032F00000252561202383F311881B484FF0FF31FF
:10330000FEF706F985F31188B2E72369002BA4D0F4
:103310002046FFF77DFF23699B684BB10522227091
:103320002046012198472378052B04BF02232370F0
:1033300000252561202383F311880C484FF0FF31CD
:10334000FEF7E6F885F3118887E700BF002001400B
:10335000740F002000210140A80F0020002201402E
:10336000DC0F0020F00F0020BC0F0020880F002091
:103370000148FEF70DBE00BF101000200000000045
:1033800001F01F0201230F29F0B503FA02F31DD942
:10339000426852F83100C40733D5214DAC681C4354
:1033A000AC60DC431E4D02EBC10110F0020FE86877
:1033B0004A6814BF18432040E86042B3184A1168B5
:1033C0000B431360536823405360F0BD21F00304A6
:1033D000426804F1804404F59C3452F83100A76837
:1033E00001F00305AD004FF00F0E0EFA05FEC0F31D
:1033F000031627EA0E0706FA05F53D43A560C40744
:10340000CBD4074EB568DC432540B560CAE7044A13
:1034100051680B435360136823401360F0BD00BF35
:10342000003C01400000000000000000000000001F
:10343000094B01F01F01012218688A40D14308405E
:103440001860586808405860986808409860D868C4
:103450000140D9605A617047003C01400000000003
:1034600038B50378012B054616D0002404E001345A
:10347000FFF786FF172C0ED06B6853F8343013F02B
:10348000040F28462146F2D1214628460134FFF791
:10349000CFFF172CF0D138BD00F082F9E5E700BF6F
:1034A000084A08B5516913680B4003F001035361E2
:1034B00023B10548436800215B689847BDE8084090
:1034C000FEF76EBA003C0140101000200000000022
:1034D000084A08B5516913680B4003F002035361B1
:1034E00023B1054843680121DB689847BDE80840DF
:1034F000FEF756BA003C014010100020000000000A
:10350000084A08B5516913680B4003F0040353617E
:1035100023B10548436802215B699847BDE808402C
:10352000FEF73EBA003C01401010002000000000F1
:10353000084A08B5516913680B4003F0080353614A
:1035400023B1054843680321DB699847BDE808407B
:10355000FEF726BA003C01401010002000000000D9
:10356000084A08B5516913680B4003F01003536112
:1035700023B10548436804215B6A9847BDE80840C9
:10358000FEF70EBA003C01401010002000000000C1
:10359000194B10B55A691C68144004F478725A61CA
:1035A000A30622D460061AD4210612D4E2050AD456
:1035B000A30504D5114843680921DB6C9847BDE891
:1035C0001040FEF7EDB90D48436808215B6C984741
:1035D000EEE70A4843680721DB6B9847E6E70748B0
:1035E000436806215B6B9847DEE704484368052182
:1035F000DB6A9847D6E700BF003C0140101000206E
:103600001D4B10B55A691C68144004F47C425A6181
:1036100062052AD4230522D4E0041AD4A10412D4CA
:1036200062040AD4230404D5144843680F21DB6FD5
:103630009847BDE81040FEF7B3B9104843680E2123
:103640005B6F9847EEE70D4843680D21DB6E9847A6
:10365000E6E70A4843680C215B6E9847DEE70748B7
:1036600043680B21DB6D9847D6E7044843680A217D
:103670005B6D9847CEE700BF003C01401010002072
:10368000084A08B55369136803F4803353612BB1BA
:10369000054843681021D3F884309847BDE80840B6
:1036A000FEF77EB9003C0140101000200000000031
:1036B000084A08B55369136803F4003353612BB10A
:1036C000054843681121D3F88C309847BDE808407D
:1036D000FEF766B9003C0140101000200000000019
:1036E000094A08B5516913680B4003F480235361FC
:1036F0002BB1064843681221D3F894309847BDE8AF
:103700000840FEF74DB900BF003C014010100020FA
:10371000094A08B5516913680B4003F480135361DB
:103720002BB1064843681421D3F8A4309847BDE86C
:103730000840FEF735B900BF003C014010100020E2
:10374000094A08B5516913680B4003F4001353612B
:103750002BB1064843681521D3F8AC309847BDE833
:103760000840FEF71DB900BF003C014010100020CA
:10377000094A08B5516913680B4003F4800353618B
:103780002BB1064843681621D3F8B4309847BDE8FA
:103790000840FEF705B900BF003C014010100020B2
:1037A000062008B50146FFF71BFA07200621FFF7A0
:1037B00017FA08200621FFF713FA09200621FFF760
:1037C0000FFA0A200621FFF70BFA17200621FFF750
:1037D00007FA28200621FFF703FA01200621FFF748
:1037E000FFF929200F21FFF7FBF92A200621FFF717
:1037F000F7F94C200621FFF7F3F902200F21FFF71C
:10380000EFF903200F21BDE80840FFF7E9B900BF39
:10381000DFF878C15749584A2DE9F043DCF8308089
:10382000DFF86CE1554F564E564D574CDFF864911A
:1038300048F0FF08CCF83080DCF8508048F0FF08F2
:10384000CCF850804368CEF804308368CEF8083056
:10385000C368CEF80C300369CEF814304369CEF853
:1038600020308369CEF824300368CEF80030036A34
:103870007B60436ABB60836AFB60C36A7B61036BE6
:103880003B62436B7B62C3693B60C76B7760076CCD
:10389000B760476CF760876C7761C76C3762076DFC
:1038A0007762876B3760866D6E60C66DAE60066E40
:1038B000EE60466E6E61866E2E62C66E6E62466DFC
:1038C0002E60456F6560856FA560C56FE560D0F8B7
:1038D00080506561D0F884502562D0F888506562C8
:1038E000056F2560D0F890404C60D0F894408C6013
:1038F000D0F89840CC60D0F89C404C61D0F8A04003
:103900000C62D0F8A4404C62D0F88C400C60D0F827
:10391000AC105160D0F8B0109160D0F8B410D16004
:10392000D0F8B8105161D0F8BC101162D0F8C010B6
:103930005162D0F8A8101160D0F8C820C9F804204E
:10394000D0F8CC20C9F80820D0F8D020C9F80C2035
:10395000D0F8D420C9F81420D0F8D820C9F82020F5
:10396000D0F8DC20C9F82420D0F8C420C9F8002001
:10397000BDE8F08300140240001802400004024039
:1039800000080240000C02400010024000380240D3
:1039900000000240001C0240000000000000000087
:1039A0002DE9F04FC2F3411C02F0030EC2F380096F
:1039B000C2F3C1080027C2F3C3124FF00F0B4FF040
:1039C000010A0FE0046A24EA03031D430562490863
:1039D00039D04FEA49094FEA88084FEA8C0C4FEA80
:1039E0008E0E0137CB07F2D543680AFA07F423EAB3
:1039F000040343EA0903436003257C00836805FA56
:103A000004F4E443234043EA08038360C56807F0F5
:103A10000703254045EA0C059B00BEF1020FC56077
:103A200002FA03F50BFA03F30FD00668344044EAB8
:103A30000E04072F0460C5D9446A24EA03031D431A
:103A400049084562C5D1BDE8F08F072F0AD8066A3C
:103A500026EA03031D43056203681C4044F0020488
:103A60000460B4E7466A26EA03031D434562F3E7B0
:103A700011F00C0F38B50546446B12D1296B0A685A
:103A8000136823F01F0313601368DB07FCD4087A64
:103A90004A683D2383401360636843F400736360A6
:103AA00038BD0248FDF764FAE8E700BFD0790008A6
:103AB00011F00C0F70B50646456B25D1F26A1368FC
:103AC000196821F01F011960196811F00104FBD178
:103AD000117A52683D238B4013606B6823F4805346
:103AE0006B602B6823F480632B602B6843F40073B6
:103AF0002B60202383F3118806F11C002146FDF77B
:103B000007FD84F3118870BD0148FDF731FAD5E750
:103B1000D079000800000000000000000000000054
:103B20003A483B4A70B5446BA369656945EA03436B
:103B300023F07F4393424CD01ED8073A93423CD0A7
:103B40000132934210D16268C36A22F400721B688A
:103B500062601A6842F001021A60626842F48052A0
:103B600062605B68012B4BD915F00A0F18BFA3697F
:103B7000BDE87040FDF714BF264A934212D00232CE
:103B80009342F1D1C36A1B685E683EB32368028C1E
:103B900043F4A06342F0010202842360BDE8704058
:103BA000FDF7FEBE6368026B23F400731268636066
:103BB000136843F001031360D6E7038C1A0A0BD095
:103BC00003F0010343F0F00302F006021343236104
:103BD000CAE7038CC3F347032361C5E7636823F493
:103BE00000736360236843F400732360202383F32E
:103BF00011881C303146FDF78BFC86F31188B3E742
:103C0000236823F480632360AEE700BF1810002010
:103C10000800030082000700000000000000000010
:103C20003448F8B5446B076B66693A68B1B201F481
:103C30005F43DB436361136823F01F031360136862
:103C4000DB07FCD497F808E0C56A7F682A683D2343
:103C500003FA0EF33B60136823F01F03136013682D
:103C600013F00103FBD12F7A6D683D22BA40CF05D6
:103C70002A6048BF01238D05836044BF43F00203DF
:103C800083604A050AD5626822F400726260226885
:103C900043F0040342F40072226083600F0544BFC6
:103CA00043F0080383604D0444BF43F02003836066
:103CB000CC0413D543F010033104836016D42023C1
:103CC00083F311880C486FF00101FDF721FC0023FC
:103CD00083F31188BDE8F840FDF762BE320405D4D5
:103CE000002BECD1BDE8F840FDF75ABE43F040038D
:103CF0008360E4E71810002034100020000000006A
:103D000010B5074C2046FEF773F9064B064A62636E
:103D1000002103F14802E161E362226310BD00BFAC
:103D20001810002010790008005400400000000026
:103D30002DE9F8430378456B40F256428262012B2D
:103D400040F216420446426243D02B46E16A226B9F
:103D50006068D1F80090D2F80080446890F808E0DC
:103D60004C4E05F110014FF410674FF4004C002247
:103D7000C9F80810C8F80810C5F800C02A606F60BC
:103D80005F684FF6C071394059605968B44241F0DC
:103D90002A01596051DD40498C4209DCBEF1020F15
:103DA0006AD0BEF1030F5AD048F6FF720D21196296
:103DB000DA6101781A68022992B24AD0032945D003
:103DC000012936D01A602B6843F001032B60BDE84F
:103DD000F883324B9842B8D1314EC06A336A314AC7
:103DE00043F4001300273362042123463762FFF7B0
:103DF00067F92D4A206B04212346FFF761F9336CE4
:103E000043F4001333641F200421FEF7E9FE04216C
:103E10002020FEF7E5FE616AA26A636B41F0007143
:103E200042F0007241F4403142F440326162A262D9
:103E30008CE722F00A0292B2C4E72B2164001B4AED
:103E40001962B2FBF4F2C2F30B02B1E742F00A02CC
:103E5000B8E722F0080292B242F00202B2E704EBA5
:103E6000840202EB8204114AB2FBF4F26FEA82424E
:103E70006FEA924292B299E701F11E7104EB44029B
:103E800001F53131B1FBF2F26FEA42426FEA524280
:103E900092B28BE7A0860100801A0600181000205D
:103EA00000380240B13A0008713A000880DE800212
:103EB0002DE9F04749000025944608AA9846018458
:103EC000446B856092E80C0485F31188076BC66A21
:103ED000D7F800E03768D0F82490816A174ECEF802
:103EE0000010CEF80CC0CEF80480C7F80090FA603D
:103EF0007B602A46B76A202501E082F3118885F3AA
:103F00001188A369990702D423689B0508D5B36A71
:103F1000DB1BB3F5FA7FF0D34FF0FF30BDE8F0873D
:103F2000636843F400736360236843F4807351460D
:103F300023601C30BDE8F047FDF7DABA700C0020B2
:103F40002DE9F04F7C4B7D499A69D0F850A09161E2
:103F500083B08346202383F3118800F1600301932B
:103F60009BF80030012B06D0DBF85C3063B9DAF83F
:103F70001430DE0608D4DAF81830019843F0100344
:103F8000CAF81830FDF7A4FA002383F311889E467F
:103F9000DAF8143013F0100350D0DBF850301A6AFE
:103FA00002F4F011B1F5802F1ED0B1F5402FEFD102
:103FB00002F00F010BEB8101C2F30A12C9680C6A0F
:103FC000002AE5D0002103F580500B4601E0934222
:103FD000DED09D0708BF0168072B03F10103F6D867
:103FE0002170090A0134F2E702F00F060BEB860696
:103FF000C2F30A12F16889694C680D6888682D1B44
:104000008AB3002103F580540B469F0708BF21683F
:104010009D4203F1010302D90170090A0130934264
:10402000F3D1F3689B6998685C68104422449860F7
:104030005A60DAF8143013F01003AED1DBF85C20CC
:10404000012101FA0EF1114200910ED10EF1010E83
:10405000DBF854309B685FFA8EFE9E4598D920238A
:1040600083F311887CE70B46DFE7202282F3118877
:10407000DAF80810DBF85C20009821F0010122EA50
:104080000002CAF80810CBF85C2083F311880BEB10
:104090008E03DB685F697D68D7F800C0AC4547D9FF
:1040A000DBF85000B3F8109000EB4E18C5EB0C0491
:1040B000D8F818394C4528BF4C469BB2B4EB830F57
:1040C0000EF1010E1FD8BE6800EB0E30336803609E
:1040D000042C07D923463246043B52F8041F0160E2
:1040E000042BF9D8254426446545BE607D6021D265
:1040F000C5EB0C04D8F818394C459BB228BF4C4688
:10410000B4EB830FE2D90022202383F31188DAF87D
:10411000083043F00103CAF808302AB9DAF8343815
:10412000009A1A43CAF83428002383F311888FE7D2
:104130000EF1010E0122E7E7700C0020F079000873
:1041400010B5064C2046FEF783FA4FF0A043044A10
:104150002365002362652366636610BD501000204E
:10416000E0790008000000000000000000000000EE
:10417000F0B50378066D012B83B001D003B0F0BD1C
:104180003D4B9842054618BF344650D00023C0210D
:104190004FF43412EB652020C6F8003E3160B26364
:1041A000FCF71EFF012323612369DB07FCD41220E7
:1041B000FCF716FF2369002BFCDA6B6D2F6DD3F82B
:1041C00008E000231A46B36019464FF0FF3407EBAE
:1041D000421301329645C3F800194FF00000C3F8AE
:1041E0001019C3F80849C3F8001BC3F8101BC3F823
:1041F000084BECD26B68DB684FF00112C7F81C2843
:10420000C6F81008C6F81408C6F81C0863B11B4BA2
:10421000B3616B6E4FF0FF327261F3B1B36843F07C
:104220000103B36003B0F0BD154BB361F1E7154B6B
:104230005A6B42F080025A635A69002142F08002B0
:104240005A61432059610E21FEF7CAFC0E4A0F4BFA
:10425000F2602C6DC6F8003898E74FF40671022220
:104260000B4B009505F16800FDF782F86866FCF7D6
:1042700057FFFDF735F8D1E750100020083C30C05B
:10428000003C30C0003802404014004003002002CF
:10429000413F000800000000000000000000000096
:1042A000F8B5056D202307462B612B6913F0200418
:1042B000FBD11220FCF794FED7F854E0C5F834483F
:1042C0004FF00112DEF80860C5F81C2823464FF0B5
:1042D00000604FF0FF3105EB43120133B342C2F8E7
:1042E0000009C2F8000BC2F80819C2F8081BF2D97D
:1042F000DEF80030BB65DEF800303A6D6B621023EB
:104300001361136913F01004FBD11220FCF768FE4F
:10431000D5F80038104A114823F4FE63C5F8003878
:10432000AB6943F4402343F010030921AB61C5F8A6
:104330001018C5F81418F860C5F8104BC5F8002B14
:10434000C5F81049C5F80029BB6D03F1100243F40C
:104350008013BA65AB62F8BD40800010007A000897
:10436000026D90F84E10D2F8003823F4FE6343EA51
:104370000113C2F800387047000000000000000080
:104380002DE9F0410FFA81F800EB88070D46FB6834
:10439000046D1A6802F00302022A5CD0032A5CD082
:1043A0004A4E4B49012A18BF0E466A01996904EB2F
:1043B000020E4FF0000CCEF810CB002971D0B3F8EC
:1043C00012E005F15801490146EA0E0E44F801E0F9
:1043D00005F1100CD4F81C184FF0010E0EFA0CFE6B
:1043E0004EEA0101C4F81C18224459694FF0000E2E
:1043F000C2F810E999B3998B1A8A01294FEA9203FE
:1044000088BF4B4305F13F0E816D04EB8E0EAA0170
:1044100003EB010C42F0200241EA0343C0F858C00C
:10442000CEF80430226123699A06FCD41220FCF7EE
:10443000D7FDFB681A8A05F148035B0142EA855201
:104440003243E2500123D4F81C28AB401343C4F894
:104450001C38BDE8F0811F4EA7E71F4EA5E705F108
:104460003F0204EB8202AB011C49516043F0200380
:10447000236123699B06FCD404EB48181220FCF747
:10448000AFFDD8F8002922F40042C8F80029D4F87A
:104490001C280123AB4022EA0303C4F81C38BDE802
:1044A000F08104EB481105F1100CD1F800EB2EF46B
:1044B000004EC1F800EBD4F81C184FF0010E0EFAB4
:1044C0000CFE21EA0E01C4F81C188DE700800410D0
:1044D000008000100080081000800C100004000212
:1044E0005831036D49015B5813F4004004D013F4B4
:1044F000001F14BF01200220704700BF0000000011
:104500004831036D49015B5813F4004004D013F4A3
:10451000001F14BF01200220704700BF00000000F0
:1045200000EB8101CB681B6A19685B6853601160FE
:10453000704700BF00000000000000000000000005
:1045400000EB810330B4DC68A2691368D36009B959
:10455000402B22D8013B628A006D24681344B3FBD0
:10456000F2F302FB03F20332DB0422F0030243F016
:10457000C043134300EB411504F00302012AC5F8C0
:10458000103B0ED009B200EB411130BCD1F8003B1A
:1045900043F00443C1F8003B7047402313603F23BE
:1045A000D9E709B2D0F8083800EB411213F4807F44
:1045B000D2F8003B14BF43F0805343F00053C2F8DD
:1045C000003BE0E7000000000000000000000000E9
:1045D0002DE9F041244D2F6D07EB40130646D3F82B
:1045E000084BC3F8084B200703D5D7F81438190730
:1045F00031D4E2071BD5D7F81438DB0717D505EB04
:104600008603DA689169508A4C68B4FBF0F300FBCA
:10461000134474B16989D2680123B34021EA0303CA
:104620006B8122B131461048BDE8F0411047BDE82A
:10463000F0810868CB689842ECD21B1A81E8180018
:10464000202383F3118808483146FFF779FF84F36C
:104650001188BDE8F08105EB86032846DB6831460A
:104660005B689847C5E700BF5010002000000000BD
:1046700000EB8103F0B4DC6865692B68EB60F3B98B
:10468000006D00EB41134FF40022C3F8102923689A
:1046900003F00303012B26D00BB200EB43130124DC
:1046A000D3F8002942F00442C3F80029D0F8342896
:1046B00004FA01F31343C0F83438F0BC704719B35F
:1046C0005D1E43F00052006D268A00EB4117AB19C6
:1046D000B3FBF6F342EAC343C7F81039236803F08B
:1046E0000303012BD8D1D0F8083813F4807F0BB224
:1046F00000EB4314D4F8002914BF42F0805242F07A
:104700000052C4F80029C8E7402BD9D940232B60B8
:10471000014A3F25D7E700BF40000020000000000D
:104720002DE9F041294E356D05EB40130746D3F8CE
:104730000849C3F80849E10703D5D5F81038DA0766
:1047400009D4230605D50123D5F83428BB401342EC
:1047500018D1BDE8F08106EB8003D9684B69186871
:10476000DA68904223D33289D1F808C00123BB40D4
:1047700022EA03033381BCF1000FE2D03046394610
:10478000E047DEE7202282F31188D5F83418F26D75
:104790000F4821EA0301C5F8341813430021F365DB
:1047A000FCF7B6FE002383F31188BDE8F081121AEE
:1047B0004FF0000883E80401202383F3118830467A
:1047C0003946FFF755FF88F31188BAE750100020EB
:1047D000B0100020000000000000000000000000F9
:1047E0002DE9F047984E376D7B69BD691D4015F482
:1047F00080597D6140F0F380002DC0F2DC802B05F4
:1048000000F1D380AC040CD5D7F8083813F0060FAC
:10481000FB6823F470530CBF43F4105343F4A053CC
:10482000FB60280729D4EA022FD4AA0200F1938062
:10483000EB0600F181806E03D7F818480BD5E0072E
:1048400000F1F880A10700F1F180620700F1EA8031
:10485000230700F1D4802F030BD5E60300F1DE809F
:10486000A50300F1D780600300F1D080210300F19F
:10487000BF80BDE8F047FDF793B87368DB68002B95
:10488000D1D071489847EA02CFD5D6F8508000249D
:1048900008E0736D6C4A9B680134E4B29C42A14607
:1048A00000F2CC8008EB4412D2F8003903F4402324
:1048B000B3F5802FEDD1D2F80039002BE9DAD2F828
:1048C000003943F09043C2F80039D2F80039002B88
:1048D000FBDB4FEA8919326D49F02003136113693C
:1048E0009906FCD41220FCF77BFB06EB84034FF007
:1048F0000109DA683389926809FA04F96FEA090A4A
:104900000AEA0303338112B14F482146904720231E
:1049100083F31188D8F83428F36D4C480AEA020270
:1049200049EA0303C8F834280021F365FCF7F0FDD9
:10493000002383F31188ACE7202383F31188BB693C
:10494000424823F01003BB610021FCF7E1FD002386
:1049500083F311886FE7D6F8508000244FF00109E7
:1049600006E0736D01349B68E4B29C423FF660AF91
:1049700008EB4412D2F8003B03F44023B3F5802F38
:10498000EFD1D2F8003B002BEBDA06EB84027389FF
:10499000D2682D48D26809FA04F123EA0103738131
:1049A0002146002ADDD09047DBE700232648F36547
:1049B000FDF7E6FE26E7D7F8003E9A0705D0D7F8C0
:1049C000003E23F00303C7F8003ED7F804381E4822
:1049D00043F00103C7F80438FDF7DAFE0FE70023C0
:1049E0003046F365FDF7ACFEBDE8F047FCF7D8BFF5
:1049F0000320FFF7EDFDBDE8F047FCF7D1BF032032
:104A0000FFF78EFE2F037FF534AF26E70220FFF776
:104A1000DFFD2BE70120FFF7DBFD24E70020FFF798
:104A2000D7FD1DE70220FFF77BFE11E70120FFF70E
:104A300077FE0AE70020FFF773FE03E7AB027FF57E
:104A4000F7AED2F8508088E750100020B010002058
:104A5000036D03EB4111D1F8003B43F40013C1F89F
:104A6000003B704700000000000000000000000054
:104A7000036D03EB4111D1F8003943F40013C1F881
:104A80000039704700000000000000000000000036
:104A9000036D03EB4111D1F8003B23F40013C1F87F
:104AA000003B704700000000000000000000000014
:104AB000036D03EB4111D1F8003923F40013C1F861
:104AC00000397047000000000000000000000000F6
:104AD00011F00C0F00D170470148FCF749BA00BF34
:104AE000D079000800000000000000000000000075
:104AF00011F00C0F38B5044634D1606A02681368AF
:104B000023F01F0313601368D907FCD4057A216AC8
:104B100040680A683D23AB400360136823F01F031D
:104B200013601368DB07FCD46368087A1A68496865
:104B30003D2383400B6092B10423237020469047AD
:104B40002378042B0BD0202383F31188002104F158
:104B50000800FCF7DDFC002383F3118838BD022335
:104B60002370F0E70148FCF703FAC6E7D0790008A4
:104B700010B50A4C0A4B4FF6FF7220461A80FDF71B
:104B8000DFFC084B08480949094AE06103F12400A9
:104B900023626062A162E26210BD00BFEC120020DD
:104BA000E81200207079000800300140160001066C
:104BB00046000106000000000000000000000000A8
:104BC0000378012B10B504461DD0C3696268A06A42
:104BD0005289E16A20F4F04021F4F04112F4006FB0
:104BE0001CBF40F4205041F42051A062E16242F425
:104BF00041720020072118601A6059601A6842F05B
:104C000040021A6010BD0F4B984209D0216A626AB7
:104C1000E3690868116803F10C0282608A60D5E7D5
:104C2000094A006A0A212346FEF74AFA074A606ADF
:104C300023460A21FEF744FA054A536C43F4805395
:104C40005364E3E7EC120020F14A0008D14A00085F
:104C500000380240000000000000000000000000DA
:104C6000436819895A6801238B409BB2538370476C
:104C7000436819895A6801238B409BB2138370479C
:104C8000F0B4046A476A866AC56A24683868E360D3
:104C900046F4806645F4806561602660C2604160CC
:104CA0000560236843F001032360036843F00103B8
:104CB0000360F0BC704700BF00000000000000006F
:104CC00070B4436A046AC56A24681B68806A094E26
:104CD000E66045F4806561602060DA6059601D60BF
:104CE000226842F0010222601A6842F001021A6052
:104CF00070BC70471C130020000000000000000082
:104D000070B4436A046A856A24681B68C06A094EE5
:104D1000E26045F4806561602560DE60596018607E
:104D2000226842F0010222601A6842F001021A6011
:104D300070BC7047E8120020000000000000000076
:104D400010B5044C2046FDF7A3F90422024B22744F
:104D5000A36110BD20130020000C004000000000E3
:104D6000F8B50378012B04464BD0836900221A6002
:104D70005A639A63DA631A645A626168A568CA68FA
:104D800060690F68CE6AB0FBF7F002F00F026C1E8C
:104D90000138012A9862DC625E6003D0022A0CBFEF
:104DA00003220022486900F00F00012826D00228C3
:104DB00022D0C86900F00F0001281AD0022816D0AE
:104DC000486A00F00F00012803D0022803D142F402
:104DD000005242F48052096B1A62012421F0FF0252
:104DE000002085215C611861DA601960F8BD42F429
:104DF000007242F48072E3E742F0200242F01002B7
:104E0000D7E70D4B984205D0A36946F668029A6130
:104E1000DA61B2E7094B1A6C42F008021A641A6AA6
:104E2000002142F008021A62322019620721FDF7C0
:104E3000D7FE034B6361E7E72013002000380240F0
:104E400000BD01050000000000000000000000009F
:104E500083690C3103EB81035A6070470000000046
:104E6000836970B51A69DC681440E2B2D243A607C0
:104E700005461A6103D543681B6903B1984760076B
:104E800004D56B689B690BB128469847210704D568
:104E90006B681B6A0BB128469847E20604D56B681D
:104EA0009B6A0BB128469847E30706D56B689B6859
:104EB0001BB12846BDE87040184770BD00000000D7
:104EC00008B50348FFF7CCFFBDE80840FCF768BD14
:104ED000201300200000000000000000000000007F
:104EE000FDF7DEBE00000000000000000000000032
:104EF000704700BF0000000000000000000000003C
:104F0000F0B400F10B07002B08BF0B463D46B1FB88
:104F1000F2F602FB161101F13004392CC8BF01F181
:104F20003704E4B205F8014DB3FBF2F33146002B30
:104F3000EDD17B1B034401E015F8014F00F8014B54
:104F40009842F9D1F0BC704700000000000000005A
:104F50002DE9F04F2DED028B8DB017460DF11903A1
:104F600006AA9B1A0193002306460D46009382462B
:104F700029786B1C71B1252912D0009CDAF8002029
:104F80001D469268504601340094904729786B1C66
:104F90000029F0D100980DB0BDEC028BBDE8F08F78
:104FA0006A782D2A03BFAA78AB1C01260026302A76
:104FB00003BF5A7801334FF030094FF02009591CD4
:104FC0004FF0000805E03B7804372A7803EB4008EF
:104FD0000131A2F13003DBB2092B0D4608EB88004A
:104FE000F3D92A2AEFD02E2A4FF0000B43D002F03B
:104FF000DF034C2B4ED0A2F14401342900F26A8128
:10500000DFE811F04F0168016801680168014F0194
:10501000680168016801680168012201680168018E
:10502000680168016801570168016801650168014C
:105030006801680168016801680168016801680128
:10504000680159014F016801D400680168014F01EE
:10505000680168016801680168012201680168014E
:1050600068018900680157016801680165013B78A2
:10507000043703EB410B15F8012BA2F13003DBB22F
:10508000092B0BEB8B01F4D92A2AF0D002F0DF03B5
:105090004C2BB0D12B78002B00F01C81A3F14402E3
:1050A0000135342A00F21581DFE812F0FB0013010C
:1050B000130113011301FB00130113011301130169
:1050C0001301CE0013011301130113011301030196
:1050D0001301130111011301130113011301130132
:1050E000130113011301130113010501FB00130147
:1050F000800013011301FB001301130113011301BD
:105100001301CE0013011301130135001301030134
:105110001301130111013C688C4B002C08BF1C4685
:1051200004372378BBF1000F00F0F180002B00F072
:10513000F3800BF1FF3B204602E0BBF1010B03D4EF
:1051400010F8013F002BF8D1001BC0EB080800F15C
:10515000FF3B4FF0200928EAE878002E00F0878016
:10516000BBF1000F11DB5E46DAF8003014F8011BCA
:105170009B68013E50469847731CF5D1009B013354
:10518000BBF1000FA8BF5B440093B8F1000F3FF4E0
:10519000EFAE4446DAF8003050469B6849469847DF
:1051A000013CF7D1009B43440093E1E6073727F029
:1051B0000707D7E90001FBF743FD08EE100AB5EE3B
:1051C000C08AF1EE10FA07F1080700F1B48006A8D2
:1051D0000BF1FF3BFDEEC87ABBF1080F28BF4FF083
:1051E000080B5B4CCDED027A17EE901A0A220023D1
:1051F00054F82B40FFF784FE83462E230BF8013B27
:1052000018EE100AFBF7E0F9CDE904010298FBF76C
:10521000C9F902460B46DDE90401FBF775F8CDE953
:1052200002012046FBF7AEF902460B46DDE902011A
:10523000FBF71EFAFBF7BCFC464BA3FB042301461D
:10524000DB0858460A2204E00822396806A8043719
:105250000023FFF755FE06ABC01A00F1FF3B1C46CA
:10526000C0EB080828EAE878002E7FF479AFC8F18F
:105270000006002E36D021782D2939D0B046DAF834
:10528000003050469B684946984718F10108F6D10E
:10529000009BBBF1000FA3EB06030093BFF663AFC7
:1052A00066E63968002907F104073DDB06A80A22F3
:1052B000CEE70A22C9E73B688DF81830019B043716
:1052C000184603F1FF3B4FF0200906ACC8E7102257
:1052D000BBE71A46019B8DF81820184603F1FF3BE7
:1052E00006ACBDE7BBF1000FB046BFF63CAF3FE6F2
:1052F000B9F1300FC2D1DAF8003050469B689847B8
:10530000009B0133013400930BF1FF3BB6E747F6F6
:10531000FE7B002B7FF40FAF28EAE8789EB94FF0B0
:10532000FF3B4FF02009A2E72D2349428DF81830AA
:105330000DF11900BBE72D23B1EE488A8DF8183026
:105340000DF1190044E74FF020091EE7107B00081B
:10535000207B0008CDCCCCCC000000000000000079
:105360000EB400B582B003AA52F8041B0192FFF7F5
:10537000EFFD02B05DF804EB03B0704700000000E1
:1053800002683749002310B422F001022124884228
:105390000260036043608360C360036144614DD079
:1053A000304B984235D0304B984239D02F4B9842F1
:1053B0003DD02F4B984247D02E4B984248D02E4B91
:1053C00098421DD02D4B98421ED02D4B984243D071
:1053D0002C4B98421DD02C4B984221D02B4B9842FD
:1053E00025D02B4B98422FD02A4B984230D02A4BB5
:1053F000984205D0294B984206D05DF8044B70477F
:10540000274A43F8942CF8E74FF03D5243F8AC2C70
:10541000F3E74FF4746243F8202C5DF8044B7047B7
:105420004FF4741243F8382C5DF8044B70474FF07A
:10543000746243F8502C5DF8044B7047194B5DF8CB
:10544000044B3D229A607047174A43F8642CD4E716
:10545000164A43F87C2CD0E73D2243F8082CCCE7D1
:1054600010600240286002404060024058600240E4
:105470007060024088600240A0600240B860024054
:1054800010640240286402404064024058640240B4
:105490007064024088640240A0640240B864024024
:1054A00000003D20006002403D000020400F002031
:1054B0002DE9F04182B08B6A0193CB684F698E6908
:1054C000CD690C6A4A6AD0F800C0DFF850E098460F
:1054D0000B6848EA030848EA07073E4335432C4374
:1054E000019B0E6B0D69224313434A6B4C681343B7
:1054F0008A6B0CEA0E0E134343EA0E030360426903
:10550000CB6A896822F00702334313434361456045
:105510008460C16002B0BDE8F08100BF3F801CF034
:10552000036819B923F001030360704743F00103D6
:105530000360704700000000000000000000000051
:10554000044A136B19B923EA00001063704718432B
:1055500010637047003802400000000000000000A7
:10556000044A136C19B923EA000010647047184309
:105570001064704700380240000000000000000086
:10558000224A036890429BB212D002F58062904298
:105590000ED0B0F1804F0BD0A2F58032904207D0F0
:1055A00002F58062904203D002F58062904203D1FE
:1055B0004A8823F070031343154A90421ED002F527
:1055C000806290421AD00A8970B423F440730F4C61
:1055D0004E680D889BB21343A0420360C662856289
:1055E00006D00C4B984203D00123436170BC704736
:1055F0008B7A03630123436170BC704703604A6880
:105600000B88C2628362012343617047000001403E
:1056100000100040000401400000000000000000F5
:1056200029B902684FF6FE731340036070470368A0
:1056300043F0010303607047000000000000000019
:10564000026AB1F800C04FF6FF63134003622DE910
:10565000F041026AB1F802E08C8945681A4EC769C8
:105660004FF6FF5313404EEA04044FF68C7243EAA0
:1056700004233A40B0429BB2ADB242EA0C0209D0D8
:10568000124CA04206D089684560C261C1630362C2
:10569000BDE8F081CC89B1F812800F8AB1F804C05E
:1056A00023F4006E4EEA042E4FF6FF3425F44056E4
:1056B0000EEA040448EA070544EA0C2346EA051505
:1056C0009BB2ADB2DFE700BF000001400004014023
:1056D000C2694FF6F77313401943C161704700BFA9
:1056E000436C19B9C3F30E034364704743F400439A
:1056F000436470470000000000000000000000004C
:105700002AB9C368C94389B21940C1607047C368E8
:105710001943C160704700BF000000000000000096
:105720002DE9F04387B0FCF76BF9FBF7C9FB42F2B8
:105730001070FBF795FE00F003F901200146FFF71A
:10574000FFFE02200121FFF7FBFE04200121FFF7ED
:10575000F7FE4548DFF8289104211822FEF720F9CA
:10576000414802211822FEF71BF94FF4007118225C
:105770003E48FEF715F9E84600F02AF900F070FB04
:1057800001F0CEF800F09CFD01F00AF957E01A2074
:1057900000F086FA57EC116B8DED042B8DED021B9A
:1057A00055EC104B8DED000B00F04AFA00F050FA6A
:1057B0009FED2B0B01F0ECF801F01AF93046394659
:1057C00000222B4BFAF754FF00222A4B06460F46C5
:1057D000FAF79CFDFBF714FA0146002000F0E0F90F
:1057E000204629460022224BFAF742FF04460D4686
:1057F00022462B4600201F49FAF786FDFBF700FAE8
:105800000146012000F0CCF932463B460020194900
:10581000FAF77AFDFBF7F4F90146022000F0C0F92F
:105820000022144B20462946FAF770FDFBF7E8F9F1
:105830000146032000F0B4F96420FBF711FE00F0EC
:10584000B7F80028A3D099E80700002388E80700EC
:1058500009490A48039342460493FFF781FD96E7FE
:1058600000000000000000000008024000040240A8
:105870000000084000006040507B00084C130020EE
:10588000E0770008000000000000000000000000B9
:10589000022906D0032906D00129064818BF002096
:1058A000704705487047032A9ABF044B03EBC200B8
:1058B00000207047A07B0008607C0008707B000817
:1058C00008B5202383F311880348FCF789FD0023E2
:1058D00083F3118808BD00BF4C13002000000000B6
:1058E000022938B50C460CD0032909D1202383F3B3
:1058F00011880E48FCF724FD002383F3118838BD7E
:1059000038BD0546202383F311880121084AFCF79E
:10591000C7FE28462146074AFCF7C2FE0348FCF7AB
:105920001FFD002383F3118838BD00BF4C130020F6
:10593000D07B0008707C0008000000000000000020
:1059400070B5154E154D164C30464FF4006140F2BF
:105950000252FEF725F840F202524FF480513046D1
:10596000FEF71EF82846FCF79BFC0E492846FCF77C
:10597000C7FC226D936B23F40023936343F69820B6
:10598000FBF76EFD20460849FCF772FE226D936B13
:1059900043F40023936370BD000002404C130020C9
:1059A00050100020007C0008907B000800000000E0
:1059B000054BD3F884341B681878A0F10400B0FAC2
:1059C00080F04009704700BF4C1300200000000029
:1059D0002DE9F04F2DED028B644B654EDFF8B0C121
:1059E00000221A605A609A60DA601A619E4699B085
:1059F000154611463746334621244220C1F307425B
:105A0000C1F307281CF802201CF80880C9B2120252
:105A10001CF8011042EA08420A4303F1300112F473
:105A2000000F14BF18801C8002338B424FEA4202E1
:105A3000F5D11835782D02D05EF8041FDEE74D4B06
:105A4000002103F1640223F8021F9342FBD14A4D67
:105A50009FED4A8A002407EE904AB8EEE70ADFED90
:105A6000480A80EE080A01F013F8013420EE080A13
:105A700000F0DEFFFDEEC07AB4F5807F17EE903ABD
:105A800005F8013FE7D14FF4857221463D48DFF824
:105A900004A1FDF785FF01214FF40010FFF750FD31
:105AA0003948FFF76DFC00254FF4806C4FF4005E21
:105AB0004FF4003203230B9609A94FF400663248D5
:105AC000CDF83CC04FF0806B4FF040094FF0AA0872
:105AD000CDF844E0139215931294CDF828A0CDF898
